{
  "_format": "hh-sol-artifact-1",
  "contractName": "BadgeFactory",
  "sourceName": "contracts/BadgeFactory.sol",
  "abi": [
    {
      "inputs": [
        {
          "internalType": "string",
          "name": "name",
          "type": "string"
        },
        {
          "internalType": "string",
          "name": "symbol",
          "type": "string"
        }
      ],
      "stateMutability": "nonpayable",
      "type": "constructor"
    },
    {
      "anonymous": false,
      "inputs": [
        {
          "indexed": true,
          "internalType": "address",
          "name": "owner",
          "type": "address"
        },
        {
          "indexed": true,
          "internalType": "address",
          "name": "approved",
          "type": "address"
        },
        {
          "indexed": true,
          "internalType": "uint256",
          "name": "tokenId",
          "type": "uint256"
        }
      ],
      "name": "Approval",
      "type": "event"
    },
    {
      "anonymous": false,
      "inputs": [
        {
          "indexed": true,
          "internalType": "address",
          "name": "owner",
          "type": "address"
        },
        {
          "indexed": true,
          "internalType": "address",
          "name": "operator",
          "type": "address"
        },
        {
          "indexed": false,
          "internalType": "bool",
          "name": "approved",
          "type": "bool"
        }
      ],
      "name": "ApprovalForAll",
      "type": "event"
    },
    {
      "anonymous": false,
      "inputs": [
        {
          "indexed": false,
          "internalType": "address",
          "name": "owner",
          "type": "address"
        },
        {
          "indexed": false,
          "internalType": "uint256",
          "name": "memberId",
          "type": "uint256"
        }
      ],
      "name": "NewBadge",
      "type": "event"
    },
    {
      "anonymous": false,
      "inputs": [
        {
          "indexed": true,
          "internalType": "address",
          "name": "previousOwner",
          "type": "address"
        },
        {
          "indexed": true,
          "internalType": "address",
          "name": "newOwner",
          "type": "address"
        }
      ],
      "name": "OwnershipTransferred",
      "type": "event"
    },
    {
      "anonymous": false,
      "inputs": [
        {
          "indexed": true,
          "internalType": "address",
          "name": "from",
          "type": "address"
        },
        {
          "indexed": true,
          "internalType": "address",
          "name": "to",
          "type": "address"
        },
        {
          "indexed": true,
          "internalType": "uint256",
          "name": "tokenId",
          "type": "uint256"
        }
      ],
      "name": "Transfer",
      "type": "event"
    },
    {
      "inputs": [
        {
          "internalType": "address",
          "name": "member",
          "type": "address"
        }
      ],
      "name": "addDaoMember",
      "outputs": [],
      "stateMutability": "nonpayable",
      "type": "function"
    },
    {
      "inputs": [
        {
          "internalType": "string",
          "name": "message",
          "type": "string"
        },
        {
          "internalType": "string",
          "name": "uri",
          "type": "string"
        }
      ],
      "name": "addNewStripe",
      "outputs": [],
      "stateMutability": "nonpayable",
      "type": "function"
    },
    {
      "inputs": [
        {
          "internalType": "address",
          "name": "",
          "type": "address"
        }
      ],
      "name": "addrToMemberId",
      "outputs": [
        {
          "internalType": "uint256",
          "name": "",
          "type": "uint256"
        }
      ],
      "stateMutability": "view",
      "type": "function"
    },
    {
      "inputs": [
        {
          "internalType": "address",
          "name": "to",
          "type": "address"
        },
        {
          "internalType": "uint256",
          "name": "tokenId",
          "type": "uint256"
        }
      ],
      "name": "approve",
      "outputs": [],
      "stateMutability": "nonpayable",
      "type": "function"
    },
    {
      "inputs": [
        {
          "internalType": "uint256",
          "name": "memberId",
          "type": "uint256"
        },
        {
          "internalType": "bool",
          "name": "vote",
          "type": "bool"
        },
        {
          "internalType": "string",
          "name": "message",
          "type": "string"
        }
      ],
      "name": "attestToLatestStripe",
      "outputs": [],
      "stateMutability": "nonpayable",
      "type": "function"
    },
    {
      "inputs": [
        {
          "internalType": "uint256",
          "name": "stripeId",
          "type": "uint256"
        },
        {
          "internalType": "uint256",
          "name": "memberId",
          "type": "uint256"
        },
        {
          "internalType": "bool",
          "name": "vote",
          "type": "bool"
        },
        {
          "internalType": "string",
          "name": "message",
          "type": "string"
        }
      ],
      "name": "attestToStripe",
      "outputs": [],
      "stateMutability": "nonpayable",
      "type": "function"
    },
    {
      "inputs": [
        {
          "internalType": "address",
          "name": "owner",
          "type": "address"
        }
      ],
      "name": "balanceOf",
      "outputs": [
        {
          "internalType": "uint256",
          "name": "",
          "type": "uint256"
        }
      ],
      "stateMutability": "view",
      "type": "function"
    },
    {
      "inputs": [
        {
          "internalType": "address[]",
          "name": "members",
          "type": "address[]"
        }
      ],
      "name": "batchAddMembers",
      "outputs": [],
      "stateMutability": "nonpayable",
      "type": "function"
    },
    {
      "inputs": [
        {
          "internalType": "uint256",
          "name": "memberId",
          "type": "uint256"
        },
        {
          "internalType": "string",
          "name": "message",
          "type": "string"
        },
        {
          "internalType": "string",
          "name": "contribType",
          "type": "string"
        },
        {
          "internalType": "string",
          "name": "uri",
          "type": "string"
        }
      ],
      "name": "contribToLatestStripe",
      "outputs": [],
      "stateMutability": "nonpayable",
      "type": "function"
    },
    {
      "inputs": [
        {
          "internalType": "uint256",
          "name": "stripeId",
          "type": "uint256"
        },
        {
          "internalType": "string",
          "name": "message",
          "type": "string"
        },
        {
          "internalType": "string",
          "name": "contribType",
          "type": "string"
        },
        {
          "internalType": "string",
          "name": "uri",
          "type": "string"
        }
      ],
      "name": "contribToStripe",
      "outputs": [],
      "stateMutability": "nonpayable",
      "type": "function"
    },
    {
      "inputs": [
        {
          "internalType": "uint256",
          "name": "",
          "type": "uint256"
        }
      ],
      "name": "discordUsernameById",
      "outputs": [
        {
          "internalType": "string",
          "name": "",
          "type": "string"
        }
      ],
      "stateMutability": "view",
      "type": "function"
    },
    {
      "inputs": [
        {
          "internalType": "uint256",
          "name": "id",
          "type": "uint256"
        }
      ],
      "name": "getAddressById",
      "outputs": [
        {
          "internalType": "address",
          "name": "",
          "type": "address"
        }
      ],
      "stateMutability": "view",
      "type": "function"
    },
    {
      "inputs": [
        {
          "internalType": "uint256",
          "name": "tokenId",
          "type": "uint256"
        }
      ],
      "name": "getApproved",
      "outputs": [
        {
          "internalType": "address",
          "name": "",
          "type": "address"
        }
      ],
      "stateMutability": "view",
      "type": "function"
    },
    {
      "inputs": [
        {
          "internalType": "uint256",
          "name": "memberId",
          "type": "uint256"
        },
        {
          "internalType": "uint256",
          "name": "stripeId",
          "type": "uint256"
        },
        {
          "internalType": "uint256",
          "name": "attestId",
          "type": "uint256"
        }
      ],
      "name": "getAttestById",
      "outputs": [
        {
          "components": [
            {
              "internalType": "address",
              "name": "attestor",
              "type": "address"
            },
            {
              "internalType": "uint256",
              "name": "time",
              "type": "uint256"
            },
            {
              "internalType": "bool",
              "name": "vote",
              "type": "bool"
            },
            {
              "internalType": "string",
              "name": "message",
              "type": "string"
            }
          ],
          "internalType": "struct cAttestation.Attestation",
          "name": "",
          "type": "tuple"
        }
      ],
      "stateMutability": "view",
      "type": "function"
    },
    {
      "inputs": [
        {
          "internalType": "uint256",
          "name": "memberId",
          "type": "uint256"
        },
        {
          "internalType": "uint256",
          "name": "stripeId",
          "type": "uint256"
        },
        {
          "internalType": "uint256",
          "name": "contribId",
          "type": "uint256"
        }
      ],
      "name": "getContribMessage",
      "outputs": [
        {
          "internalType": "string",
          "name": "",
          "type": "string"
        }
      ],
      "stateMutability": "view",
      "type": "function"
    },
    {
      "inputs": [
        {
          "internalType": "uint256",
          "name": "memberId",
          "type": "uint256"
        }
      ],
      "name": "getLatestStripeId",
      "outputs": [
        {
          "internalType": "uint256",
          "name": "",
          "type": "uint256"
        }
      ],
      "stateMutability": "view",
      "type": "function"
    },
    {
      "inputs": [
        {
          "internalType": "uint256",
          "name": "memberId",
          "type": "uint256"
        },
        {
          "internalType": "uint256",
          "name": "stripeId",
          "type": "uint256"
        }
      ],
      "name": "getStripeMessageById",
      "outputs": [
        {
          "internalType": "string",
          "name": "message",
          "type": "string"
        }
      ],
      "stateMutability": "view",
      "type": "function"
    },
    {
      "inputs": [
        {
          "internalType": "uint256",
          "name": "memberId",
          "type": "uint256"
        },
        {
          "internalType": "uint256",
          "name": "stripeId",
          "type": "uint256"
        }
      ],
      "name": "getStripeUriById",
      "outputs": [
        {
          "internalType": "string",
          "name": "uri",
          "type": "string"
        }
      ],
      "stateMutability": "view",
      "type": "function"
    },
    {
      "inputs": [
        {
          "internalType": "address",
          "name": "owner",
          "type": "address"
        },
        {
          "internalType": "address",
          "name": "operator",
          "type": "address"
        }
      ],
      "name": "isApprovedForAll",
      "outputs": [
        {
          "internalType": "bool",
          "name": "",
          "type": "bool"
        }
      ],
      "stateMutability": "view",
      "type": "function"
    },
    {
      "inputs": [
        {
          "components": [
            {
              "internalType": "address",
              "name": "contributor",
              "type": "address"
            },
            {
              "internalType": "uint256",
              "name": "time",
              "type": "uint256"
            },
            {
              "internalType": "string",
              "name": "message",
              "type": "string"
            },
            {
              "internalType": "string",
              "name": "contribType",
              "type": "string"
            },
            {
              "internalType": "string",
              "name": "uri",
              "type": "string"
            }
          ],
          "internalType": "struct cContribution.Contribution",
          "name": "c",
          "type": "tuple"
        }
      ],
      "name": "messageOf",
      "outputs": [
        {
          "internalType": "string",
          "name": "",
          "type": "string"
        }
      ],
      "stateMutability": "pure",
      "type": "function"
    },
    {
      "inputs": [],
      "name": "name",
      "outputs": [
        {
          "internalType": "string",
          "name": "",
          "type": "string"
        }
      ],
      "stateMutability": "view",
      "type": "function"
    },
    {
      "inputs": [],
      "name": "owner",
      "outputs": [
        {
          "internalType": "address",
          "name": "",
          "type": "address"
        }
      ],
      "stateMutability": "view",
      "type": "function"
    },
    {
      "inputs": [
        {
          "internalType": "uint256",
          "name": "tokenId",
          "type": "uint256"
        }
      ],
      "name": "ownerOf",
      "outputs": [
        {
          "internalType": "address",
          "name": "",
          "type": "address"
        }
      ],
      "stateMutability": "view",
      "type": "function"
    },
    {
      "inputs": [],
      "name": "renounceOwnership",
      "outputs": [],
      "stateMutability": "nonpayable",
      "type": "function"
    },
    {
      "inputs": [
        {
          "internalType": "address",
          "name": "from",
          "type": "address"
        },
        {
          "internalType": "address",
          "name": "to",
          "type": "address"
        },
        {
          "internalType": "uint256",
          "name": "tokenId",
          "type": "uint256"
        }
      ],
      "name": "safeTransferFrom",
      "outputs": [],
      "stateMutability": "nonpayable",
      "type": "function"
    },
    {
      "inputs": [
        {
          "internalType": "address",
          "name": "from",
          "type": "address"
        },
        {
          "internalType": "address",
          "name": "to",
          "type": "address"
        },
        {
          "internalType": "uint256",
          "name": "tokenId",
          "type": "uint256"
        },
        {
          "internalType": "bytes",
          "name": "_data",
          "type": "bytes"
        }
      ],
      "name": "safeTransferFrom",
      "outputs": [],
      "stateMutability": "nonpayable",
      "type": "function"
    },
    {
      "inputs": [
        {
          "internalType": "address",
          "name": "operator",
          "type": "address"
        },
        {
          "internalType": "bool",
          "name": "approved",
          "type": "bool"
        }
      ],
      "name": "setApprovalForAll",
      "outputs": [],
      "stateMutability": "nonpayable",
      "type": "function"
    },
    {
      "inputs": [
        {
          "internalType": "address",
          "name": "token",
          "type": "address"
        }
      ],
      "name": "setDaoTokenAddress",
      "outputs": [],
      "stateMutability": "nonpayable",
      "type": "function"
    },
    {
      "inputs": [
        {
          "internalType": "uint256",
          "name": "",
          "type": "uint256"
        }
      ],
      "name": "stripeCount",
      "outputs": [
        {
          "internalType": "uint256",
          "name": "",
          "type": "uint256"
        }
      ],
      "stateMutability": "view",
      "type": "function"
    },
    {
      "inputs": [
        {
          "internalType": "uint256",
          "name": "",
          "type": "uint256"
        },
        {
          "internalType": "uint256",
          "name": "",
          "type": "uint256"
        }
      ],
      "name": "stripesById",
      "outputs": [
        {
          "internalType": "string",
          "name": "message",
          "type": "string"
        },
        {
          "internalType": "string",
          "name": "uri",
          "type": "string"
        },
        {
          "internalType": "uint256",
          "name": "contribSize",
          "type": "uint256"
        },
        {
          "internalType": "uint256",
          "name": "attestSize",
          "type": "uint256"
        }
      ],
      "stateMutability": "view",
      "type": "function"
    },
    {
      "inputs": [
        {
          "internalType": "bytes4",
          "name": "interfaceId",
          "type": "bytes4"
        }
      ],
      "name": "supportsInterface",
      "outputs": [
        {
          "internalType": "bool",
          "name": "",
          "type": "bool"
        }
      ],
      "stateMutability": "view",
      "type": "function"
    },
    {
      "inputs": [],
      "name": "symbol",
      "outputs": [
        {
          "internalType": "string",
          "name": "",
          "type": "string"
        }
      ],
      "stateMutability": "view",
      "type": "function"
    },
    {
      "inputs": [
        {
          "internalType": "uint256",
          "name": "tokenId",
          "type": "uint256"
        }
      ],
      "name": "tokenURI",
      "outputs": [
        {
          "internalType": "string",
          "name": "",
          "type": "string"
        }
      ],
      "stateMutability": "view",
      "type": "function"
    },
    {
      "inputs": [
        {
          "internalType": "address",
          "name": "from",
          "type": "address"
        },
        {
          "internalType": "address",
          "name": "to",
          "type": "address"
        },
        {
          "internalType": "uint256",
          "name": "tokenId",
          "type": "uint256"
        }
      ],
      "name": "transferFrom",
      "outputs": [],
      "stateMutability": "nonpayable",
      "type": "function"
    },
    {
      "inputs": [
        {
          "internalType": "address",
          "name": "newOwner",
          "type": "address"
        }
      ],
      "name": "transferOwnership",
      "outputs": [],
      "stateMutability": "nonpayable",
      "type": "function"
    }
  ],
  "bytecode": "0x60806040523480156200001157600080fd5b5060405162005160380380620051608339818101604052810190620000379190620003b2565b818181816200005b6200004f6200009960201b60201c565b620000a160201b60201c565b81600190805190602001906200007392919062000165565b5080600290805190602001906200008c92919062000165565b505050505050506200049c565b600033905090565b60008060009054906101000a900473ffffffffffffffffffffffffffffffffffffffff169050816000806101000a81548173ffffffffffffffffffffffffffffffffffffffff021916908373ffffffffffffffffffffffffffffffffffffffff1602179055508173ffffffffffffffffffffffffffffffffffffffff168173ffffffffffffffffffffffffffffffffffffffff167f8be0079c531659141344cd1fd0a4f28419497f9722a3daafe3b4186f6b6457e060405160405180910390a35050565b828054620001739062000466565b90600052602060002090601f016020900481019282620001975760008555620001e3565b82601f10620001b257805160ff1916838001178555620001e3565b82800160010185558215620001e3579182015b82811115620001e2578251825591602001919060010190620001c5565b5b509050620001f29190620001f6565b5090565b5b8082111562000211576000816000905550600101620001f7565b5090565b6000604051905090565b600080fd5b600080fd5b600080fd5b600080fd5b6000601f19601f8301169050919050565b7f4e487b7100000000000000000000000000000000000000000000000000000000600052604160045260246000fd5b6200027e8262000233565b810181811067ffffffffffffffff82111715620002a0576200029f62000244565b5b80604052505050565b6000620002b562000215565b9050620002c3828262000273565b919050565b600067ffffffffffffffff821115620002e657620002e562000244565b5b620002f18262000233565b9050602081019050919050565b60005b838110156200031e57808201518184015260208101905062000301565b838111156200032e576000848401525b50505050565b60006200034b6200034584620002c8565b620002a9565b9050828152602081018484840111156200036a57620003696200022e565b5b62000377848285620002fe565b509392505050565b600082601f83011262000397576200039662000229565b5b8151620003a984826020860162000334565b91505092915050565b60008060408385031215620003cc57620003cb6200021f565b5b600083015167ffffffffffffffff811115620003ed57620003ec62000224565b5b620003fb858286016200037f565b925050602083015167ffffffffffffffff8111156200041f576200041e62000224565b5b6200042d858286016200037f565b9150509250929050565b7f4e487b7100000000000000000000000000000000000000000000000000000000600052602260045260246000fd5b600060028204905060018216806200047f57607f821691505b6020821081141562000496576200049562000437565b5b50919050565b614cb480620004ac6000396000f3fe608060405234801561001057600080fd5b50600436106102115760003560e01c806395d89b4111610125578063d519ffa4116100ad578063e23192491161007c578063e231924914610656578063e985e9c514610686578063ed7cf0eb146106b6578063f2fde38b146106e9578063f4404bd81461070557610211565b8063d519ffa4146105aa578063dc39ace2146105c6578063ddfec012146105f6578063dfb12ae01461062657610211565b8063a22cb465116100f4578063a22cb465146104f6578063a69d5be714610512578063b88d4fde1461052e578063bb4d88f11461054a578063c87b56dd1461057a57610211565b806395d89b41146104705780639a8867641461048e5780639be45e8f146104aa5780639c9f8869146104da57610211565b806345efb8b5116101a85780637cf0b5db116101775780637cf0b5db146103ba578063858cb54d146103ea578063864defa2146104065780638d80c922146104225780638da5cb5b1461045257610211565b806345efb8b5146103345780636352211e1461035057806370a0823114610380578063715018a6146103b057610211565b8063095ea7b3116101e4578063095ea7b3146102c457806323b872dd146102e057806324d5404b146102fc57806342842e0e1461031857610211565b806301ffc9a71461021657806304bf0fed1461024657806306fdde0314610276578063081812fc14610294575b600080fd5b610230600480360381019061022b9190613372565b610735565b60405161023d91906133ba565b60405180910390f35b610260600480360381019061025b9190613699565b610817565b60405161026d919061376a565b60405180910390f35b61027e610825565b60405161028b919061376a565b60405180910390f35b6102ae60048036038101906102a9919061378c565b6108b7565b6040516102bb91906137c8565b60405180910390f35b6102de60048036038101906102d991906137e3565b61093c565b005b6102fa60048036038101906102f59190613823565b610a54565b005b610316600480360381019061031191906138a2565b610ab4565b005b610332600480360381019061032d9190613823565b610b1f565b005b61034e60048036038101906103499190613925565b610b3f565b005b61036a6004803603810190610365919061378c565b610c22565b60405161037791906137c8565b60405180910390f35b61039a600480360381019061039591906139e0565b610cd4565b6040516103a79190613a1c565b60405180910390f35b6103b8610d8c565b005b6103d460048036038101906103cf9190613a37565b610e14565b6040516103e1919061376a565b60405180910390f35b61040460048036038101906103ff9190613b52565b610e2e565b005b610420600480360381019061041b91906139e0565b610ef0565b005b61043c6004803603810190610437919061378c565b610f78565b60405161044991906137c8565b60405180910390f35b61045a610f8a565b60405161046791906137c8565b60405180910390f35b610478610fb3565b604051610485919061376a565b60405180910390f35b6104a860048036038101906104a39190613925565b611045565b005b6104c460048036038101906104bf9190613b9b565b611203565b6040516104d1919061376a565b60405180910390f35b6104f460048036038101906104ef9190613bdb565b6112bd565b005b610510600480360381019061050b9190613c4a565b611326565b005b61052c60048036038101906105279190613c8a565b61133c565b005b61054860048036038101906105439190613da3565b611492565b005b610564600480360381019061055f919061378c565b6114f4565b6040516105719190613a1c565b60405180910390f35b610594600480360381019061058f919061378c565b61153c565b6040516105a1919061376a565b60405180910390f35b6105c460048036038101906105bf91906139e0565b61168e565b005b6105e060048036038101906105db919061378c565b61174e565b6040516105ed919061376a565b60405180910390f35b610610600480360381019061060b9190613b9b565b6117ee565b60405161061d919061376a565b60405180910390f35b610640600480360381019061063b91906139e0565b6118a8565b60405161064d9190613a1c565b60405180910390f35b610670600480360381019061066b919061378c565b6118c0565b60405161067d9190613a1c565b60405180910390f35b6106a0600480360381019061069b9190613e26565b6118d8565b6040516106ad91906133ba565b60405180910390f35b6106d060048036038101906106cb9190613b9b565b61196c565b6040516106e09493929190613e66565b60405180910390f35b61070360048036038101906106fe91906139e0565b611ab9565b005b61071f600480360381019061071a9190613a37565b611bb1565b60405161072c9190613f93565b60405180910390f35b60007f80ac58cd000000000000000000000000000000000000000000000000000000007bffffffffffffffffffffffffffffffffffffffffffffffffffffffff1916827bffffffffffffffffffffffffffffffffffffffffffffffffffffffff1916148061080057507f5b5e139f000000000000000000000000000000000000000000000000000000007bffffffffffffffffffffffffffffffffffffffffffffffffffffffff1916827bffffffffffffffffffffffffffffffffffffffffffffffffffffffff1916145b80610810575061080f82611d12565b5b9050919050565b606081604001519050919050565b60606001805461083490613fe4565b80601f016020809104026020016040519081016040528092919081815260200182805461086090613fe4565b80156108ad5780601f10610882576101008083540402835291602001916108ad565b820191906000526020600020905b81548152906001019060200180831161089057829003601f168201915b5050505050905090565b60006108c282611d7c565b610901576040517f08c379a00000000000000000000000000000000000000000000000000000000081526004016108f890614088565b60405180910390fd5b6005600083815260200190815260200160002060009054906101000a900473ffffffffffffffffffffffffffffffffffffffff169050919050565b600061094782610c22565b90508073ffffffffffffffffffffffffffffffffffffffff168373ffffffffffffffffffffffffffffffffffffffff1614156109b8576040517f08c379a00000000000000000000000000000000000000000000000000000000081526004016109af9061411a565b60405180910390fd5b8073ffffffffffffffffffffffffffffffffffffffff166109d7611de8565b73ffffffffffffffffffffffffffffffffffffffff161480610a065750610a0581610a00611de8565b6118d8565b5b610a45576040517f08c379a0000000000000000000000000000000000000000000000000000000008152600401610a3c906141ac565b60405180910390fd5b610a4f8383611df0565b505050565b610a65610a5f611de8565b82611ea9565b610aa4576040517f08c379a0000000000000000000000000000000000000000000000000000000008152600401610a9b9061423e565b60405180910390fd5b610aaf838383611f87565b505050565b6000610abf33610cd4565b11610aff576040517f08c379a0000000000000000000000000000000000000000000000000000000008152600401610af6906142aa565b60405180910390fd5b6000610b0b8383611fcd565b9050610b18848683612016565b5050505050565b610b3a83838360405180602001604052806000815250611492565b505050565b836000610b4b33610cd4565b11610b8b576040517f08c379a0000000000000000000000000000000000000000000000000000000008152600401610b82906142aa565b60405180910390fd5b3373ffffffffffffffffffffffffffffffffffffffff16610bab82610c22565b73ffffffffffffffffffffffffffffffffffffffff1614610c01576040517f08c379a0000000000000000000000000000000000000000000000000000000008152600401610bf890614316565b60405180910390fd5b6000610c0e858585612109565b9050610c1a8682612157565b505050505050565b6000806003600084815260200190815260200160002060009054906101000a900473ffffffffffffffffffffffffffffffffffffffff169050600073ffffffffffffffffffffffffffffffffffffffff168173ffffffffffffffffffffffffffffffffffffffff161415610ccb576040517f08c379a0000000000000000000000000000000000000000000000000000000008152600401610cc2906143a8565b60405180910390fd5b80915050919050565b60008073ffffffffffffffffffffffffffffffffffffffff168273ffffffffffffffffffffffffffffffffffffffff161415610d45576040517f08c379a0000000000000000000000000000000000000000000000000000000008152600401610d3c9061443a565b60405180910390fd5b600460008373ffffffffffffffffffffffffffffffffffffffff1673ffffffffffffffffffffffffffffffffffffffff168152602001908152602001600020549050919050565b610d94611de8565b73ffffffffffffffffffffffffffffffffffffffff16610db2610f8a565b73ffffffffffffffffffffffffffffffffffffffff1614610e08576040517f08c379a0000000000000000000000000000000000000000000000000000000008152600401610dff906144a6565b60405180910390fd5b610e126000612271565b565b6060610e21848484612335565b6040015190509392505050565b610e36611de8565b73ffffffffffffffffffffffffffffffffffffffff16610e54610f8a565b73ffffffffffffffffffffffffffffffffffffffff1614610eaa576040517f08c379a0000000000000000000000000000000000000000000000000000000008152600401610ea1906144a6565b60405180910390fd5b60005b8151811015610eec57610ed9828281518110610ecc57610ecb6144c6565b5b6020026020010151610ef0565b8080610ee490614524565b915050610ead565b5050565b610ef8611de8565b73ffffffffffffffffffffffffffffffffffffffff16610f16610f8a565b73ffffffffffffffffffffffffffffffffffffffff1614610f6c576040517f08c379a0000000000000000000000000000000000000000000000000000000008152600401610f63906144a6565b60405180910390fd5b610f758161259f565b50565b6000610f8382610c22565b9050919050565b60008060009054906101000a900473ffffffffffffffffffffffffffffffffffffffff16905090565b606060028054610fc290613fe4565b80601f0160208091040260200160405190810160405280929190818152602001828054610fee90613fe4565b801561103b5780601f106110105761010080835404028352916020019161103b565b820191906000526020600020905b81548152906001019060200180831161101e57829003601f168201915b5050505050905090565b600f60003373ffffffffffffffffffffffffffffffffffffffff1673ffffffffffffffffffffffffffffffffffffffff16815260200190815260200160002054600061109033610cd4565b116110d0576040517f08c379a00000000000000000000000000000000000000000000000000000000081526004016110c7906142aa565b60405180910390fd5b3373ffffffffffffffffffffffffffffffffffffffff166110f082610c22565b73ffffffffffffffffffffffffffffffffffffffff1614611146576040517f08c379a000000000000000000000000000000000000000000000000000000000815260040161113d90614316565b60405180910390fd5b61114e6131de565b33816000019073ffffffffffffffffffffffffffffffffffffffff16908173ffffffffffffffffffffffffffffffffffffffff1681525050428160200181815250508481604001819052508381606001819052508281608001819052506000600f60003373ffffffffffffffffffffffffffffffffffffffff1673ffffffffffffffffffffffffffffffffffffffff1681526020019081526020016000205490506111fa81888461262d565b50505050505050565b6060600960008481526020019081526020016000206000838152602001908152602001600020600101805461123790613fe4565b80601f016020809104026020016040519081016040528092919081815260200182805461126390613fe4565b80156112b05780601f10611285576101008083540402835291602001916112b0565b820191906000526020600020905b81548152906001019060200180831161129357829003601f168201915b5050505050905092915050565b60006112c833610cd4565b11611308576040517f08c379a00000000000000000000000000000000000000000000000000000000081526004016112ff906142aa565b60405180910390fd5b60006113148383611fcd565b9050611320848261273a565b50505050565b611338611331611de8565b838361283a565b5050565b600f60003373ffffffffffffffffffffffffffffffffffffffff1673ffffffffffffffffffffffffffffffffffffffff16815260200190815260200160002054600061138733610cd4565b116113c7576040517f08c379a00000000000000000000000000000000000000000000000000000000081526004016113be906142aa565b60405180910390fd5b3373ffffffffffffffffffffffffffffffffffffffff166113e782610c22565b73ffffffffffffffffffffffffffffffffffffffff161461143d576040517f08c379a000000000000000000000000000000000000000000000000000000000815260040161143490614316565b60405180910390fd5b6000600f60003373ffffffffffffffffffffffffffffffffffffffff1673ffffffffffffffffffffffffffffffffffffffff16815260200190815260200160002054905061148c8185856129a7565b50505050565b6114a361149d611de8565b83611ea9565b6114e2576040517f08c379a00000000000000000000000000000000000000000000000000000000081526004016114d99061423e565b60405180910390fd5b6114ee84848484612afc565b50505050565b600080600a6000848152602001908152602001600020541161151557600080fd5b6001600a600084815260200190815260200160002054611535919061456d565b9050919050565b606061154782611d7c565b611586576040517f08c379a000000000000000000000000000000000000000000000000000000000815260040161157d90614613565b60405180910390fd5b60006007600084815260200190815260200160002080546115a690613fe4565b80601f01602080910402602001604051908101604052809291908181526020018280546115d290613fe4565b801561161f5780601f106115f45761010080835404028352916020019161161f565b820191906000526020600020905b81548152906001019060200180831161160257829003601f168201915b505050505090506000611630612b58565b9050600081511415611646578192505050611689565b60008251111561167b57808260405160200161166392919061466f565b60405160208183030381529060405292505050611689565b61168484612b6f565b925050505b919050565b611696611de8565b73ffffffffffffffffffffffffffffffffffffffff166116b4610f8a565b73ffffffffffffffffffffffffffffffffffffffff161461170a576040517f08c379a0000000000000000000000000000000000000000000000000000000008152600401611701906144a6565b60405180910390fd5b80600d60006101000a81548173ffffffffffffffffffffffffffffffffffffffff021916908373ffffffffffffffffffffffffffffffffffffffff16021790555050565b600c602052806000526040600020600091509050805461176d90613fe4565b80601f016020809104026020016040519081016040528092919081815260200182805461179990613fe4565b80156117e65780601f106117bb576101008083540402835291602001916117e6565b820191906000526020600020905b8154815290600101906020018083116117c957829003601f168201915b505050505081565b6060600960008481526020019081526020016000206000838152602001908152602001600020600001805461182290613fe4565b80601f016020809104026020016040519081016040528092919081815260200182805461184e90613fe4565b801561189b5780601f106118705761010080835404028352916020019161189b565b820191906000526020600020905b81548152906001019060200180831161187e57829003601f168201915b5050505050905092915050565b600f6020528060005260406000206000915090505481565b600a6020528060005260406000206000915090505481565b6000600660008473ffffffffffffffffffffffffffffffffffffffff1673ffffffffffffffffffffffffffffffffffffffff16815260200190815260200160002060008373ffffffffffffffffffffffffffffffffffffffff1673ffffffffffffffffffffffffffffffffffffffff16815260200190815260200160002060009054906101000a900460ff16905092915050565b60096020528160005260406000206020528060005260406000206000915091505080600001805461199c90613fe4565b80601f01602080910402602001604051908101604052809291908181526020018280546119c890613fe4565b8015611a155780601f106119ea57610100808354040283529160200191611a15565b820191906000526020600020905b8154815290600101906020018083116119f857829003601f168201915b505050505090806001018054611a2a90613fe4565b80601f0160208091040260200160405190810160405280929190818152602001828054611a5690613fe4565b8015611aa35780601f10611a7857610100808354040283529160200191611aa3565b820191906000526020600020905b815481529060010190602001808311611a8657829003601f168201915b5050505050908060030154908060050154905084565b611ac1611de8565b73ffffffffffffffffffffffffffffffffffffffff16611adf610f8a565b73ffffffffffffffffffffffffffffffffffffffff1614611b35576040517f08c379a0000000000000000000000000000000000000000000000000000000008152600401611b2c906144a6565b60405180910390fd5b600073ffffffffffffffffffffffffffffffffffffffff168173ffffffffffffffffffffffffffffffffffffffff161415611ba5576040517f08c379a0000000000000000000000000000000000000000000000000000000008152600401611b9c90614705565b60405180910390fd5b611bae81612271565b50565b611bb9613223565b60096000858152602001908152602001600020600084815260200190815260200160002060040160008381526020019081526020016000206040518060800160405290816000820160009054906101000a900473ffffffffffffffffffffffffffffffffffffffff1673ffffffffffffffffffffffffffffffffffffffff1673ffffffffffffffffffffffffffffffffffffffff168152602001600182015481526020016002820160009054906101000a900460ff16151515158152602001600382018054611c8790613fe4565b80601f0160208091040260200160405190810160405280929190818152602001828054611cb390613fe4565b8015611d005780601f10611cd557610100808354040283529160200191611d00565b820191906000526020600020905b815481529060010190602001808311611ce357829003601f168201915b50505050508152505090509392505050565b60007f01ffc9a7000000000000000000000000000000000000000000000000000000007bffffffffffffffffffffffffffffffffffffffffffffffffffffffff1916827bffffffffffffffffffffffffffffffffffffffffffffffffffffffff1916149050919050565b60008073ffffffffffffffffffffffffffffffffffffffff166003600084815260200190815260200160002060009054906101000a900473ffffffffffffffffffffffffffffffffffffffff1673ffffffffffffffffffffffffffffffffffffffff1614159050919050565b600033905090565b816005600083815260200190815260200160002060006101000a81548173ffffffffffffffffffffffffffffffffffffffff021916908373ffffffffffffffffffffffffffffffffffffffff160217905550808273ffffffffffffffffffffffffffffffffffffffff16611e6383610c22565b73ffffffffffffffffffffffffffffffffffffffff167f8c5be1e5ebec7d5bd14f71427d1e84f3dd0314c0f7b2291e5b200ac8c7c3b92560405160405180910390a45050565b6000611eb482611d7c565b611ef3576040517f08c379a0000000000000000000000000000000000000000000000000000000008152600401611eea90614797565b60405180910390fd5b6000611efe83610c22565b90508073ffffffffffffffffffffffffffffffffffffffff168473ffffffffffffffffffffffffffffffffffffffff161480611f6d57508373ffffffffffffffffffffffffffffffffffffffff16611f55846108b7565b73ffffffffffffffffffffffffffffffffffffffff16145b80611f7e5750611f7d81856118d8565b5b91505092915050565b6000611fc8576040517f08c379a0000000000000000000000000000000000000000000000000000000008152600401611fbf90614803565b60405180910390fd5b505050565b611fd5613223565b60405180608001604052803373ffffffffffffffffffffffffffffffffffffffff168152602001428152602001841515815260200183815250905092915050565b60006009600085815260200190815260200160002060008481526020019081526020016000209050818160040160008360030154815260200190815260200160002060008201518160000160006101000a81548173ffffffffffffffffffffffffffffffffffffffff021916908373ffffffffffffffffffffffffffffffffffffffff1602179055506020820151816001015560408201518160020160006101000a81548160ff02191690831515021790555060608201518160030190805190602001906120e5929190613263565b509050508060050160008154809291906120fe90614524565b919050555050505050565b6121116131de565b6040518060a001604052803373ffffffffffffffffffffffffffffffffffffffff1681526020014281526020018581526020018481526020018381525090509392505050565b6000612162836114f4565b905060006009600085815260200190815260200160002060008381526020019081526020016000209050828160020160008360030154815260200190815260200160002060008201518160000160006101000a81548173ffffffffffffffffffffffffffffffffffffffff021916908373ffffffffffffffffffffffffffffffffffffffff160217905550602082015181600101556040820151816002019080519060200190612213929190613263565b506060820151816003019080519060200190612230929190613263565b50608082015181600401908051906020019061224d929190613263565b5090505080600301600081548092919061226690614524565b919050555050505050565b60008060009054906101000a900473ffffffffffffffffffffffffffffffffffffffff169050816000806101000a81548173ffffffffffffffffffffffffffffffffffffffff021916908373ffffffffffffffffffffffffffffffffffffffff1602179055508173ffffffffffffffffffffffffffffffffffffffff168173ffffffffffffffffffffffffffffffffffffffff167f8be0079c531659141344cd1fd0a4f28419497f9722a3daafe3b4186f6b6457e060405160405180910390a35050565b61233d6131de565b60096000858152602001908152602001600020600084815260200190815260200160002060020160008381526020019081526020016000206040518060a00160405290816000820160009054906101000a900473ffffffffffffffffffffffffffffffffffffffff1673ffffffffffffffffffffffffffffffffffffffff1673ffffffffffffffffffffffffffffffffffffffff168152602001600182015481526020016002820180546123f090613fe4565b80601f016020809104026020016040519081016040528092919081815260200182805461241c90613fe4565b80156124695780601f1061243e57610100808354040283529160200191612469565b820191906000526020600020905b81548152906001019060200180831161244c57829003601f168201915b5050505050815260200160038201805461248290613fe4565b80601f01602080910402602001604051908101604052809291908181526020018280546124ae90613fe4565b80156124fb5780601f106124d0576101008083540402835291602001916124fb565b820191906000526020600020905b8154815290600101906020018083116124de57829003601f168201915b5050505050815260200160048201805461251490613fe4565b80601f016020809104026020016040519081016040528092919081815260200182805461254090613fe4565b801561258d5780601f106125625761010080835404028352916020019161258d565b820191906000526020600020905b81548152906001019060200180831161257057829003601f168201915b50505050508152505090509392505050565b60006125aa82612c16565b905080600f60008473ffffffffffffffffffffffffffffffffffffffff1673ffffffffffffffffffffffffffffffffffffffff168152602001908152602001600020819055507fb62cedb0baf4106f2334f1171ed38da58d218be16d69ed60b51c895f03a43ce38282604051612621929190614823565b60405180910390a15050565b60006009600085815260200190815260200160002060008481526020019081526020016000209050818160020160008360030154815260200190815260200160002060008201518160000160006101000a81548173ffffffffffffffffffffffffffffffffffffffff021916908373ffffffffffffffffffffffffffffffffffffffff1602179055506020820151816001015560408201518160020190805190602001906126dc929190613263565b5060608201518160030190805190602001906126f9929190613263565b506080820151816004019080519060200190612716929190613263565b5090505080600301600081548092919061272f90614524565b919050555050505050565b6000612745836114f4565b905060006009600085815260200190815260200160002060008381526020019081526020016000209050828160040160008360030154815260200190815260200160002060008201518160000160006101000a81548173ffffffffffffffffffffffffffffffffffffffff021916908373ffffffffffffffffffffffffffffffffffffffff1602179055506020820151816001015560408201518160020160006101000a81548160ff0219169083151502179055506060820151816003019080519060200190612816929190613263565b5090505080600501600081548092919061282f90614524565b919050555050505050565b8173ffffffffffffffffffffffffffffffffffffffff168373ffffffffffffffffffffffffffffffffffffffff1614156128a9576040517f08c379a00000000000000000000000000000000000000000000000000000000081526004016128a090614898565b60405180910390fd5b80600660008573ffffffffffffffffffffffffffffffffffffffff1673ffffffffffffffffffffffffffffffffffffffff16815260200190815260200160002060008473ffffffffffffffffffffffffffffffffffffffff1673ffffffffffffffffffffffffffffffffffffffff16815260200190815260200160002060006101000a81548160ff0219169083151502179055508173ffffffffffffffffffffffffffffffffffffffff168373ffffffffffffffffffffffffffffffffffffffff167f17307eab39ab6107e8899845ad3d59bd9653f200f220920489ca2b5937696c318360405161299a91906133ba565b60405180910390a3505050565b6000600a60008581526020019081526020016000205490508260096000868152602001908152602001600020600083815260200190815260200160002060000190805190602001906129fa929190613263565b50816009600086815260200190815260200160002060008381526020019081526020016000206001019080519060200190612a36929190613263565b50826009600086815260200190815260200160002060008381526020019081526020016000206000019080519060200190612a72929190613263565b50600060096000868152602001908152602001600020600083815260200190815260200160002060030181905550600060096000868152602001908152602001600020600083815260200190815260200160002060050181905550600a60008581526020019081526020016000206000815480929190612af190614524565b919050555050505050565b612b07848484611f87565b612b1384848484612c42565b612b52576040517f08c379a0000000000000000000000000000000000000000000000000000000008152600401612b499061492a565b60405180910390fd5b50505050565b606060405180602001604052806000815250905090565b6060612b7a82611d7c565b612bb9576040517f08c379a0000000000000000000000000000000000000000000000000000000008152600401612bb0906149bc565b60405180910390fd5b6000612bc3612b58565b90506000815111612be35760405180602001604052806000815250612c0e565b80612bed84612dd9565b604051602001612bfe92919061466f565b6040516020818303038152906040525b915050919050565b600080612c236008612f3a565b9050612c2f6008612f48565b612c398382612f5e565b80915050919050565b6000612c638473ffffffffffffffffffffffffffffffffffffffff16612f7c565b15612dcc578373ffffffffffffffffffffffffffffffffffffffff1663150b7a02612c8c611de8565b8786866040518563ffffffff1660e01b8152600401612cae9493929190614a31565b602060405180830381600087803b158015612cc857600080fd5b505af1925050508015612cf957506040513d601f19601f82011682018060405250810190612cf69190614a92565b60015b612d7c573d8060008114612d29576040519150601f19603f3d011682016040523d82523d6000602084013e612d2e565b606091505b50600081511415612d74576040517f08c379a0000000000000000000000000000000000000000000000000000000008152600401612d6b9061492a565b60405180910390fd5b805181602001fd5b63150b7a0260e01b7bffffffffffffffffffffffffffffffffffffffffffffffffffffffff1916817bffffffffffffffffffffffffffffffffffffffffffffffffffffffff191614915050612dd1565b600190505b949350505050565b60606000821415612e21576040518060400160405280600181526020017f30000000000000000000000000000000000000000000000000000000000000008152509050612f35565b600082905060005b60008214612e53578080612e3c90614524565b915050600a82612e4c9190614aee565b9150612e29565b60008167ffffffffffffffff811115612e6f57612e6e6133eb565b5b6040519080825280601f01601f191660200182016040528015612ea15781602001600182028036833780820191505090505b5090505b60008514612f2e57600182612eba919061456d565b9150600a85612ec99190614b1f565b6030612ed59190614b50565b60f81b818381518110612eeb57612eea6144c6565b5b60200101907effffffffffffffffffffffffffffffffffffffffffffffffffffffffffffff1916908160001a905350600a85612f279190614aee565b9450612ea5565b8093505050505b919050565b600081600001549050919050565b6001816000016000828254019250508190555050565b612f78828260405180602001604052806000815250612f9f565b5050565b6000808273ffffffffffffffffffffffffffffffffffffffff163b119050919050565b612fa98383612ffa565b612fb66000848484612c42565b612ff5576040517f08c379a0000000000000000000000000000000000000000000000000000000008152600401612fec9061492a565b60405180910390fd5b505050565b600073ffffffffffffffffffffffffffffffffffffffff168273ffffffffffffffffffffffffffffffffffffffff16141561306a576040517f08c379a000000000000000000000000000000000000000000000000000000000815260040161306190614bf2565b60405180910390fd5b61307381611d7c565b156130b3576040517f08c379a00000000000000000000000000000000000000000000000000000000081526004016130aa90614c5e565b60405180910390fd5b6130bf600083836131d4565b6001600460008473ffffffffffffffffffffffffffffffffffffffff1673ffffffffffffffffffffffffffffffffffffffff168152602001908152602001600020600082825461310f9190614b50565b92505081905550816003600083815260200190815260200160002060006101000a81548173ffffffffffffffffffffffffffffffffffffffff021916908373ffffffffffffffffffffffffffffffffffffffff160217905550808273ffffffffffffffffffffffffffffffffffffffff16600073ffffffffffffffffffffffffffffffffffffffff167fddf252ad1be2c89b69c2b068fc378daa952ba7f163c4a11628f55a4df523b3ef60405160405180910390a46131d0600083836131d9565b5050565b505050565b505050565b6040518060a00160405280600073ffffffffffffffffffffffffffffffffffffffff168152602001600081526020016060815260200160608152602001606081525090565b6040518060800160405280600073ffffffffffffffffffffffffffffffffffffffff16815260200160008152602001600015158152602001606081525090565b82805461326f90613fe4565b90600052602060002090601f01602090048101928261329157600085556132d8565b82601f106132aa57805160ff19168380011785556132d8565b828001600101855582156132d8579182015b828111156132d75782518255916020019190600101906132bc565b5b5090506132e591906132e9565b5090565b5b808211156133025760008160009055506001016132ea565b5090565b6000604051905090565b600080fd5b600080fd5b60007fffffffff0000000000000000000000000000000000000000000000000000000082169050919050565b61334f8161331a565b811461335a57600080fd5b50565b60008135905061336c81613346565b92915050565b60006020828403121561338857613387613310565b5b60006133968482850161335d565b91505092915050565b60008115159050919050565b6133b48161339f565b82525050565b60006020820190506133cf60008301846133ab565b92915050565b600080fd5b6000601f19601f8301169050919050565b7f4e487b7100000000000000000000000000000000000000000000000000000000600052604160045260246000fd5b613423826133da565b810181811067ffffffffffffffff82111715613442576134416133eb565b5b80604052505050565b6000613455613306565b9050613461828261341a565b919050565b600080fd5b600073ffffffffffffffffffffffffffffffffffffffff82169050919050565b60006134968261346b565b9050919050565b6134a68161348b565b81146134b157600080fd5b50565b6000813590506134c38161349d565b92915050565b6000819050919050565b6134dc816134c9565b81146134e757600080fd5b50565b6000813590506134f9816134d3565b92915050565b600080fd5b600080fd5b600067ffffffffffffffff821115613524576135236133eb565b5b61352d826133da565b9050602081019050919050565b82818337600083830152505050565b600061355c61355784613509565b61344b565b90508281526020810184848401111561357857613577613504565b5b61358384828561353a565b509392505050565b600082601f8301126135a05761359f6134ff565b5b81356135b0848260208601613549565b91505092915050565b600060a082840312156135cf576135ce6133d5565b5b6135d960a061344b565b905060006135e9848285016134b4565b60008301525060206135fd848285016134ea565b602083015250604082013567ffffffffffffffff81111561362157613620613466565b5b61362d8482850161358b565b604083015250606082013567ffffffffffffffff81111561365157613650613466565b5b61365d8482850161358b565b606083015250608082013567ffffffffffffffff81111561368157613680613466565b5b61368d8482850161358b565b60808301525092915050565b6000602082840312156136af576136ae613310565b5b600082013567ffffffffffffffff8111156136cd576136cc613315565b5b6136d9848285016135b9565b91505092915050565b600081519050919050565b600082825260208201905092915050565b60005b8381101561371c578082015181840152602081019050613701565b8381111561372b576000848401525b50505050565b600061373c826136e2565b61374681856136ed565b93506137568185602086016136fe565b61375f816133da565b840191505092915050565b600060208201905081810360008301526137848184613731565b905092915050565b6000602082840312156137a2576137a1613310565b5b60006137b0848285016134ea565b91505092915050565b6137c28161348b565b82525050565b60006020820190506137dd60008301846137b9565b92915050565b600080604083850312156137fa576137f9613310565b5b6000613808858286016134b4565b9250506020613819858286016134ea565b9150509250929050565b60008060006060848603121561383c5761383b613310565b5b600061384a868287016134b4565b935050602061385b868287016134b4565b925050604061386c868287016134ea565b9150509250925092565b61387f8161339f565b811461388a57600080fd5b50565b60008135905061389c81613876565b92915050565b600080600080608085870312156138bc576138bb613310565b5b60006138ca878288016134ea565b94505060206138db878288016134ea565b93505060406138ec8782880161388d565b925050606085013567ffffffffffffffff81111561390d5761390c613315565b5b6139198782880161358b565b91505092959194509250565b6000806000806080858703121561393f5761393e613310565b5b600061394d878288016134ea565b945050602085013567ffffffffffffffff81111561396e5761396d613315565b5b61397a8782880161358b565b935050604085013567ffffffffffffffff81111561399b5761399a613315565b5b6139a78782880161358b565b925050606085013567ffffffffffffffff8111156139c8576139c7613315565b5b6139d48782880161358b565b91505092959194509250565b6000602082840312156139f6576139f5613310565b5b6000613a04848285016134b4565b91505092915050565b613a16816134c9565b82525050565b6000602082019050613a316000830184613a0d565b92915050565b600080600060608486031215613a5057613a4f613310565b5b6000613a5e868287016134ea565b9350506020613a6f868287016134ea565b9250506040613a80868287016134ea565b9150509250925092565b600067ffffffffffffffff821115613aa557613aa46133eb565b5b602082029050602081019050919050565b600080fd5b6000613ace613ac984613a8a565b61344b565b90508083825260208201905060208402830185811115613af157613af0613ab6565b5b835b81811015613b1a5780613b0688826134b4565b845260208401935050602081019050613af3565b5050509392505050565b600082601f830112613b3957613b386134ff565b5b8135613b49848260208601613abb565b91505092915050565b600060208284031215613b6857613b67613310565b5b600082013567ffffffffffffffff811115613b8657613b85613315565b5b613b9284828501613b24565b91505092915050565b60008060408385031215613bb257613bb1613310565b5b6000613bc0858286016134ea565b9250506020613bd1858286016134ea565b9150509250929050565b600080600060608486031215613bf457613bf3613310565b5b6000613c02868287016134ea565b9350506020613c138682870161388d565b925050604084013567ffffffffffffffff811115613c3457613c33613315565b5b613c408682870161358b565b9150509250925092565b60008060408385031215613c6157613c60613310565b5b6000613c6f858286016134b4565b9250506020613c808582860161388d565b9150509250929050565b60008060408385031215613ca157613ca0613310565b5b600083013567ffffffffffffffff811115613cbf57613cbe613315565b5b613ccb8582860161358b565b925050602083013567ffffffffffffffff811115613cec57613ceb613315565b5b613cf88582860161358b565b9150509250929050565b600067ffffffffffffffff821115613d1d57613d1c6133eb565b5b613d26826133da565b9050602081019050919050565b6000613d46613d4184613d02565b61344b565b905082815260208101848484011115613d6257613d61613504565b5b613d6d84828561353a565b509392505050565b600082601f830112613d8a57613d896134ff565b5b8135613d9a848260208601613d33565b91505092915050565b60008060008060808587031215613dbd57613dbc613310565b5b6000613dcb878288016134b4565b9450506020613ddc878288016134b4565b9350506040613ded878288016134ea565b925050606085013567ffffffffffffffff811115613e0e57613e0d613315565b5b613e1a87828801613d75565b91505092959194509250565b60008060408385031215613e3d57613e3c613310565b5b6000613e4b858286016134b4565b9250506020613e5c858286016134b4565b9150509250929050565b60006080820190508181036000830152613e808187613731565b90508181036020830152613e948186613731565b9050613ea36040830185613a0d565b613eb06060830184613a0d565b95945050505050565b613ec28161348b565b82525050565b613ed1816134c9565b82525050565b613ee08161339f565b82525050565b600082825260208201905092915050565b6000613f02826136e2565b613f0c8185613ee6565b9350613f1c8185602086016136fe565b613f25816133da565b840191505092915050565b6000608083016000830151613f486000860182613eb9565b506020830151613f5b6020860182613ec8565b506040830151613f6e6040860182613ed7565b5060608301518482036060860152613f868282613ef7565b9150508091505092915050565b60006020820190508181036000830152613fad8184613f30565b905092915050565b7f4e487b7100000000000000000000000000000000000000000000000000000000600052602260045260246000fd5b60006002820490506001821680613ffc57607f821691505b602082108114156140105761400f613fb5565b5b50919050565b7f4552433732313a20617070726f76656420717565727920666f72206e6f6e657860008201527f697374656e7420746f6b656e0000000000000000000000000000000000000000602082015250565b6000614072602c836136ed565b915061407d82614016565b604082019050919050565b600060208201905081810360008301526140a181614065565b9050919050565b7f4552433732313a20617070726f76616c20746f2063757272656e74206f776e6560008201527f7200000000000000000000000000000000000000000000000000000000000000602082015250565b60006141046021836136ed565b915061410f826140a8565b604082019050919050565b60006020820190508181036000830152614133816140f7565b9050919050565b7f4552433732313a20617070726f76652063616c6c6572206973206e6f74206f7760008201527f6e6572206e6f7220617070726f76656420666f7220616c6c0000000000000000602082015250565b60006141966038836136ed565b91506141a18261413a565b604082019050919050565b600060208201905081810360008301526141c581614189565b9050919050565b7f4552433732313a207472616e736665722063616c6c6572206973206e6f74206f60008201527f776e6572206e6f7220617070726f766564000000000000000000000000000000602082015250565b60006142286031836136ed565b9150614233826141cc565b604082019050919050565b600060208201905081810360008301526142578161421b565b9050919050565b7f796f7520617265206e6f7420696e207468652044414f21000000000000000000600082015250565b60006142946017836136ed565b915061429f8261425e565b602082019050919050565b600060208201905081810360008301526142c381614287565b9050919050565b7f596f7520646f206e6f74206f776e207468697320426164676521000000000000600082015250565b6000614300601a836136ed565b915061430b826142ca565b602082019050919050565b6000602082019050818103600083015261432f816142f3565b9050919050565b7f4552433732313a206f776e657220717565727920666f72206e6f6e657869737460008201527f656e7420746f6b656e0000000000000000000000000000000000000000000000602082015250565b60006143926029836136ed565b915061439d82614336565b604082019050919050565b600060208201905081810360008301526143c181614385565b9050919050565b7f4552433732313a2062616c616e636520717565727920666f7220746865207a6560008201527f726f206164647265737300000000000000000000000000000000000000000000602082015250565b6000614424602a836136ed565b915061442f826143c8565b604082019050919050565b6000602082019050818103600083015261445381614417565b9050919050565b7f4f776e61626c653a2063616c6c6572206973206e6f7420746865206f776e6572600082015250565b60006144906020836136ed565b915061449b8261445a565b602082019050919050565b600060208201905081810360008301526144bf81614483565b9050919050565b7f4e487b7100000000000000000000000000000000000000000000000000000000600052603260045260246000fd5b7f4e487b7100000000000000000000000000000000000000000000000000000000600052601160045260246000fd5b600061452f826134c9565b91507fffffffffffffffffffffffffffffffffffffffffffffffffffffffffffffffff821415614562576145616144f5565b5b600182019050919050565b6000614578826134c9565b9150614583836134c9565b925082821015614596576145956144f5565b5b828203905092915050565b7f45524337323155524953746f726167653a2055524920717565727920666f722060008201527f6e6f6e6578697374656e7420746f6b656e000000000000000000000000000000602082015250565b60006145fd6031836136ed565b9150614608826145a1565b604082019050919050565b6000602082019050818103600083015261462c816145f0565b9050919050565b600081905092915050565b6000614649826136e2565b6146538185614633565b93506146638185602086016136fe565b80840191505092915050565b600061467b828561463e565b9150614687828461463e565b91508190509392505050565b7f4f776e61626c653a206e6577206f776e657220697320746865207a65726f206160008201527f6464726573730000000000000000000000000000000000000000000000000000602082015250565b60006146ef6026836136ed565b91506146fa82614693565b604082019050919050565b6000602082019050818103600083015261471e816146e2565b9050919050565b7f4552433732313a206f70657261746f7220717565727920666f72206e6f6e657860008201527f697374656e7420746f6b656e0000000000000000000000000000000000000000602082015250565b6000614781602c836136ed565b915061478c82614725565b604082019050919050565b600060208201905081810360008301526147b081614774565b9050919050565b7f4e6f6e2d7472616e736665727261626c65210000000000000000000000000000600082015250565b60006147ed6012836136ed565b91506147f8826147b7565b602082019050919050565b6000602082019050818103600083015261481c816147e0565b9050919050565b600060408201905061483860008301856137b9565b6148456020830184613a0d565b9392505050565b7f4552433732313a20617070726f766520746f2063616c6c657200000000000000600082015250565b60006148826019836136ed565b915061488d8261484c565b602082019050919050565b600060208201905081810360008301526148b181614875565b9050919050565b7f4552433732313a207472616e7366657220746f206e6f6e20455243373231526560008201527f63656976657220696d706c656d656e7465720000000000000000000000000000602082015250565b60006149146032836136ed565b915061491f826148b8565b604082019050919050565b6000602082019050818103600083015261494381614907565b9050919050565b7f4552433732314d657461646174613a2055524920717565727920666f72206e6f60008201527f6e6578697374656e7420746f6b656e0000000000000000000000000000000000602082015250565b60006149a6602f836136ed565b91506149b18261494a565b604082019050919050565b600060208201905081810360008301526149d581614999565b9050919050565b600081519050919050565b600082825260208201905092915050565b6000614a03826149dc565b614a0d81856149e7565b9350614a1d8185602086016136fe565b614a26816133da565b840191505092915050565b6000608082019050614a4660008301876137b9565b614a5360208301866137b9565b614a606040830185613a0d565b8181036060830152614a7281846149f8565b905095945050505050565b600081519050614a8c81613346565b92915050565b600060208284031215614aa857614aa7613310565b5b6000614ab684828501614a7d565b91505092915050565b7f4e487b7100000000000000000000000000000000000000000000000000000000600052601260045260246000fd5b6000614af9826134c9565b9150614b04836134c9565b925082614b1457614b13614abf565b5b828204905092915050565b6000614b2a826134c9565b9150614b35836134c9565b925082614b4557614b44614abf565b5b828206905092915050565b6000614b5b826134c9565b9150614b66836134c9565b9250827fffffffffffffffffffffffffffffffffffffffffffffffffffffffffffffffff03821115614b9b57614b9a6144f5565b5b828201905092915050565b7f4552433732313a206d696e7420746f20746865207a65726f2061646472657373600082015250565b6000614bdc6020836136ed565b9150614be782614ba6565b602082019050919050565b60006020820190508181036000830152614c0b81614bcf565b9050919050565b7f4552433732313a20746f6b656e20616c7265616479206d696e74656400000000600082015250565b6000614c48601c836136ed565b9150614c5382614c12565b602082019050919050565b60006020820190508181036000830152614c7781614c3b565b905091905056fea26469706673582212206beb08ee29ac2cbe843e5fb5763b20d53d3ef69ff9c66c96bb2bf11625137a6d64736f6c63430008090033",
  "linkReferences": {},
  "deployedLinkReferences": {}
}