{
  "_format": "hh-sol-artifact-1",
  "contractName": "BadgeFactory",
  "sourceName": "contracts/BadgeFactory.sol",
  "abi": [
    {
      "inputs": [
        {
          "internalType": "address",
          "name": "_token",
          "type": "address"
        }
      ],
      "stateMutability": "nonpayable",
      "type": "constructor"
    },
    {
      "anonymous": false,
      "inputs": [
        {
          "indexed": true,
          "internalType": "address",
          "name": "owner",
          "type": "address"
        },
        {
          "indexed": true,
          "internalType": "address",
          "name": "approved",
          "type": "address"
        },
        {
          "indexed": true,
          "internalType": "uint256",
          "name": "tokenId",
          "type": "uint256"
        }
      ],
      "name": "Approval",
      "type": "event"
    },
    {
      "anonymous": false,
      "inputs": [
        {
          "indexed": true,
          "internalType": "address",
          "name": "owner",
          "type": "address"
        },
        {
          "indexed": true,
          "internalType": "address",
          "name": "operator",
          "type": "address"
        },
        {
          "indexed": false,
          "internalType": "bool",
          "name": "approved",
          "type": "bool"
        }
      ],
      "name": "ApprovalForAll",
      "type": "event"
    },
    {
      "anonymous": false,
      "inputs": [
        {
          "indexed": false,
          "internalType": "address",
          "name": "owner",
          "type": "address"
        },
        {
          "indexed": false,
          "internalType": "uint256",
          "name": "memberId",
          "type": "uint256"
        }
      ],
      "name": "NewBadge",
      "type": "event"
    },
    {
      "anonymous": false,
      "inputs": [
        {
          "indexed": true,
          "internalType": "address",
          "name": "previousOwner",
          "type": "address"
        },
        {
          "indexed": true,
          "internalType": "address",
          "name": "newOwner",
          "type": "address"
        }
      ],
      "name": "OwnershipTransferred",
      "type": "event"
    },
    {
      "anonymous": false,
      "inputs": [
        {
          "indexed": true,
          "internalType": "address",
          "name": "from",
          "type": "address"
        },
        {
          "indexed": true,
          "internalType": "address",
          "name": "to",
          "type": "address"
        },
        {
          "indexed": true,
          "internalType": "uint256",
          "name": "tokenId",
          "type": "uint256"
        }
      ],
      "name": "Transfer",
      "type": "event"
    },
    {
      "inputs": [
        {
          "internalType": "address",
          "name": "_member",
          "type": "address"
        }
      ],
      "name": "addDaoMember",
      "outputs": [],
      "stateMutability": "nonpayable",
      "type": "function"
    },
    {
      "inputs": [
        {
          "internalType": "address",
          "name": "",
          "type": "address"
        }
      ],
      "name": "addrToMemberId",
      "outputs": [
        {
          "internalType": "uint256",
          "name": "",
          "type": "uint256"
        }
      ],
      "stateMutability": "view",
      "type": "function"
    },
    {
      "inputs": [
        {
          "internalType": "address",
          "name": "to",
          "type": "address"
        },
        {
          "internalType": "uint256",
          "name": "tokenId",
          "type": "uint256"
        }
      ],
      "name": "approve",
      "outputs": [],
      "stateMutability": "nonpayable",
      "type": "function"
    },
    {
      "inputs": [
        {
          "internalType": "address",
          "name": "owner",
          "type": "address"
        }
      ],
      "name": "balanceOf",
      "outputs": [
        {
          "internalType": "uint256",
          "name": "",
          "type": "uint256"
        }
      ],
      "stateMutability": "view",
      "type": "function"
    },
    {
      "inputs": [
        {
          "internalType": "uint256",
          "name": "tokenId",
          "type": "uint256"
        }
      ],
      "name": "getApproved",
      "outputs": [
        {
          "internalType": "address",
          "name": "",
          "type": "address"
        }
      ],
      "stateMutability": "view",
      "type": "function"
    },
    {
      "inputs": [
        {
          "internalType": "address",
          "name": "owner",
          "type": "address"
        },
        {
          "internalType": "address",
          "name": "operator",
          "type": "address"
        }
      ],
      "name": "isApprovedForAll",
      "outputs": [
        {
          "internalType": "bool",
          "name": "",
          "type": "bool"
        }
      ],
      "stateMutability": "view",
      "type": "function"
    },
    {
      "inputs": [
        {
          "internalType": "uint256",
          "name": "",
          "type": "uint256"
        }
      ],
      "name": "memberIdToAddress",
      "outputs": [
        {
          "internalType": "address",
          "name": "",
          "type": "address"
        }
      ],
      "stateMutability": "view",
      "type": "function"
    },
    {
      "inputs": [],
      "name": "name",
      "outputs": [
        {
          "internalType": "string",
          "name": "",
          "type": "string"
        }
      ],
      "stateMutability": "view",
      "type": "function"
    },
    {
      "inputs": [],
      "name": "owner",
      "outputs": [
        {
          "internalType": "address",
          "name": "",
          "type": "address"
        }
      ],
      "stateMutability": "view",
      "type": "function"
    },
    {
      "inputs": [
        {
          "internalType": "uint256",
          "name": "tokenId",
          "type": "uint256"
        }
      ],
      "name": "ownerOf",
      "outputs": [
        {
          "internalType": "address",
          "name": "",
          "type": "address"
        }
      ],
      "stateMutability": "view",
      "type": "function"
    },
    {
      "inputs": [],
      "name": "renounceOwnership",
      "outputs": [],
      "stateMutability": "nonpayable",
      "type": "function"
    },
    {
      "inputs": [
        {
          "internalType": "address",
          "name": "from",
          "type": "address"
        },
        {
          "internalType": "address",
          "name": "to",
          "type": "address"
        },
        {
          "internalType": "uint256",
          "name": "tokenId",
          "type": "uint256"
        }
      ],
      "name": "safeTransferFrom",
      "outputs": [],
      "stateMutability": "nonpayable",
      "type": "function"
    },
    {
      "inputs": [
        {
          "internalType": "address",
          "name": "from",
          "type": "address"
        },
        {
          "internalType": "address",
          "name": "to",
          "type": "address"
        },
        {
          "internalType": "uint256",
          "name": "tokenId",
          "type": "uint256"
        },
        {
          "internalType": "bytes",
          "name": "_data",
          "type": "bytes"
        }
      ],
      "name": "safeTransferFrom",
      "outputs": [],
      "stateMutability": "nonpayable",
      "type": "function"
    },
    {
      "inputs": [
        {
          "internalType": "address",
          "name": "operator",
          "type": "address"
        },
        {
          "internalType": "bool",
          "name": "approved",
          "type": "bool"
        }
      ],
      "name": "setApprovalForAll",
      "outputs": [],
      "stateMutability": "nonpayable",
      "type": "function"
    },
    {
      "inputs": [
        {
          "internalType": "address",
          "name": "_token",
          "type": "address"
        }
      ],
      "name": "setDaoTokenAddress",
      "outputs": [],
      "stateMutability": "nonpayable",
      "type": "function"
    },
    {
      "inputs": [
        {
          "internalType": "bytes4",
          "name": "interfaceId",
          "type": "bytes4"
        }
      ],
      "name": "supportsInterface",
      "outputs": [
        {
          "internalType": "bool",
          "name": "",
          "type": "bool"
        }
      ],
      "stateMutability": "view",
      "type": "function"
    },
    {
      "inputs": [],
      "name": "symbol",
      "outputs": [
        {
          "internalType": "string",
          "name": "",
          "type": "string"
        }
      ],
      "stateMutability": "view",
      "type": "function"
    },
    {
      "inputs": [
        {
          "internalType": "uint256",
          "name": "tokenId",
          "type": "uint256"
        }
      ],
      "name": "tokenURI",
      "outputs": [
        {
          "internalType": "string",
          "name": "",
          "type": "string"
        }
      ],
      "stateMutability": "view",
      "type": "function"
    },
    {
      "inputs": [
        {
          "internalType": "address",
          "name": "from",
          "type": "address"
        },
        {
          "internalType": "address",
          "name": "to",
          "type": "address"
        },
        {
          "internalType": "uint256",
          "name": "tokenId",
          "type": "uint256"
        }
      ],
      "name": "transferFrom",
      "outputs": [],
      "stateMutability": "nonpayable",
      "type": "function"
    },
    {
      "inputs": [
        {
          "internalType": "address",
          "name": "newOwner",
          "type": "address"
        }
      ],
      "name": "transferOwnership",
      "outputs": [],
      "stateMutability": "nonpayable",
      "type": "function"
    }
  ],
  "bytecode": "0x60806040523480156200001157600080fd5b506040516200307438038062003074833981810160405281019062000037919062000327565b6040518060400160405280600c81526020017f4261646765466163746f727900000000000000000000000000000000000000008152506040518060400160405280600481526020017f46414354000000000000000000000000000000000000000000000000000000008152508160009080519060200190620000bb9291906200020d565b508060019080519060200190620000d49291906200020d565b505050620000f7620000eb6200013f60201b60201c565b6200014760201b60201c565b80600960006101000a81548173ffffffffffffffffffffffffffffffffffffffff021916908373ffffffffffffffffffffffffffffffffffffffff16021790555050620003be565b600033905090565b6000600660009054906101000a900473ffffffffffffffffffffffffffffffffffffffff16905081600660006101000a81548173ffffffffffffffffffffffffffffffffffffffff021916908373ffffffffffffffffffffffffffffffffffffffff1602179055508173ffffffffffffffffffffffffffffffffffffffff168173ffffffffffffffffffffffffffffffffffffffff167f8be0079c531659141344cd1fd0a4f28419497f9722a3daafe3b4186f6b6457e060405160405180910390a35050565b8280546200021b9062000388565b90600052602060002090601f0160209004810192826200023f57600085556200028b565b82601f106200025a57805160ff19168380011785556200028b565b828001600101855582156200028b579182015b828111156200028a5782518255916020019190600101906200026d565b5b5090506200029a91906200029e565b5090565b5b80821115620002b95760008160009055506001016200029f565b5090565b600080fd5b600073ffffffffffffffffffffffffffffffffffffffff82169050919050565b6000620002ef82620002c2565b9050919050565b6200030181620002e2565b81146200030d57600080fd5b50565b6000815190506200032181620002f6565b92915050565b60006020828403121562000340576200033f620002bd565b5b6000620003508482850162000310565b91505092915050565b7f4e487b7100000000000000000000000000000000000000000000000000000000600052602260045260246000fd5b60006002820490506001821680620003a157607f821691505b60208210811415620003b857620003b762000359565b5b50919050565b612ca680620003ce6000396000f3fe608060405234801561001057600080fd5b506004361061012c5760003560e01c80638da5cb5b116100ad578063d519ffa411610071578063d519ffa41461032d578063dfb12ae014610349578063e985e9c514610379578063f2fde38b146103a9578063feaac44d146103c55761012c565b80638da5cb5b1461028957806395d89b41146102a7578063a22cb465146102c5578063b88d4fde146102e1578063c87b56dd146102fd5761012c565b806342842e0e116100f457806342842e0e146101e75780636352211e1461020357806370a0823114610233578063715018a614610263578063864defa21461026d5761012c565b806301ffc9a71461013157806306fdde0314610161578063081812fc1461017f578063095ea7b3146101af57806323b872dd146101cb575b600080fd5b61014b60048036038101906101469190611b98565b6103f5565b6040516101589190611be0565b60405180910390f35b6101696104d7565b6040516101769190611c94565b60405180910390f35b61019960048036038101906101949190611cec565b610569565b6040516101a69190611d5a565b60405180910390f35b6101c960048036038101906101c49190611da1565b6105ee565b005b6101e560048036038101906101e09190611de1565b610706565b005b61020160048036038101906101fc9190611de1565b610766565b005b61021d60048036038101906102189190611cec565b610786565b60405161022a9190611d5a565b60405180910390f35b61024d60048036038101906102489190611e34565b610838565b60405161025a9190611e70565b60405180910390f35b61026b6108f0565b005b61028760048036038101906102829190611e34565b610978565b005b610291610a00565b60405161029e9190611d5a565b60405180910390f35b6102af610a2a565b6040516102bc9190611c94565b60405180910390f35b6102df60048036038101906102da9190611eb7565b610abc565b005b6102fb60048036038101906102f6919061202c565b610ad2565b005b61031760048036038101906103129190611cec565b610b34565b6040516103249190611c94565b60405180910390f35b61034760048036038101906103429190611e34565b610bdb565b005b610363600480360381019061035e9190611e34565b610c9b565b6040516103709190611e70565b60405180910390f35b610393600480360381019061038e91906120af565b610cb3565b6040516103a09190611be0565b60405180910390f35b6103c360048036038101906103be9190611e34565b610d47565b005b6103df60048036038101906103da9190611cec565b610e3f565b6040516103ec9190611d5a565b60405180910390f35b60007f80ac58cd000000000000000000000000000000000000000000000000000000007bffffffffffffffffffffffffffffffffffffffffffffffffffffffff1916827bffffffffffffffffffffffffffffffffffffffffffffffffffffffff191614806104c057507f5b5e139f000000000000000000000000000000000000000000000000000000007bffffffffffffffffffffffffffffffffffffffffffffffffffffffff1916827bffffffffffffffffffffffffffffffffffffffffffffffffffffffff1916145b806104d057506104cf82610e72565b5b9050919050565b6060600080546104e69061211e565b80601f01602080910402602001604051908101604052809291908181526020018280546105129061211e565b801561055f5780601f106105345761010080835404028352916020019161055f565b820191906000526020600020905b81548152906001019060200180831161054257829003601f168201915b5050505050905090565b600061057482610edc565b6105b3576040517f08c379a00000000000000000000000000000000000000000000000000000000081526004016105aa906121c2565b60405180910390fd5b6004600083815260200190815260200160002060009054906101000a900473ffffffffffffffffffffffffffffffffffffffff169050919050565b60006105f982610786565b90508073ffffffffffffffffffffffffffffffffffffffff168373ffffffffffffffffffffffffffffffffffffffff16141561066a576040517f08c379a000000000000000000000000000000000000000000000000000000000815260040161066190612254565b60405180910390fd5b8073ffffffffffffffffffffffffffffffffffffffff16610689610f48565b73ffffffffffffffffffffffffffffffffffffffff1614806106b857506106b7816106b2610f48565b610cb3565b5b6106f7576040517f08c379a00000000000000000000000000000000000000000000000000000000081526004016106ee906122e6565b60405180910390fd5b6107018383610f50565b505050565b610717610711610f48565b82611009565b610756576040517f08c379a000000000000000000000000000000000000000000000000000000000815260040161074d90612378565b60405180910390fd5b6107618383836110e7565b505050565b61078183838360405180602001604052806000815250610ad2565b505050565b6000806002600084815260200190815260200160002060009054906101000a900473ffffffffffffffffffffffffffffffffffffffff169050600073ffffffffffffffffffffffffffffffffffffffff168173ffffffffffffffffffffffffffffffffffffffff16141561082f576040517f08c379a00000000000000000000000000000000000000000000000000000000081526004016108269061240a565b60405180910390fd5b80915050919050565b60008073ffffffffffffffffffffffffffffffffffffffff168273ffffffffffffffffffffffffffffffffffffffff1614156108a9576040517f08c379a00000000000000000000000000000000000000000000000000000000081526004016108a09061249c565b60405180910390fd5b600360008373ffffffffffffffffffffffffffffffffffffffff1673ffffffffffffffffffffffffffffffffffffffff168152602001908152602001600020549050919050565b6108f8610f48565b73ffffffffffffffffffffffffffffffffffffffff16610916610a00565b73ffffffffffffffffffffffffffffffffffffffff161461096c576040517f08c379a000000000000000000000000000000000000000000000000000000000815260040161096390612508565b60405180910390fd5b610976600061134e565b565b610980610f48565b73ffffffffffffffffffffffffffffffffffffffff1661099e610a00565b73ffffffffffffffffffffffffffffffffffffffff16146109f4576040517f08c379a00000000000000000000000000000000000000000000000000000000081526004016109eb90612508565b60405180910390fd5b6109fd81611414565b50565b6000600660009054906101000a900473ffffffffffffffffffffffffffffffffffffffff16905090565b606060018054610a399061211e565b80601f0160208091040260200160405190810160405280929190818152602001828054610a659061211e565b8015610ab25780601f10610a8757610100808354040283529160200191610ab2565b820191906000526020600020905b815481529060010190602001808311610a9557829003601f168201915b5050505050905090565b610ace610ac7610f48565b8383611636565b5050565b610ae3610add610f48565b83611009565b610b22576040517f08c379a0000000000000000000000000000000000000000000000000000000008152600401610b1990612378565b60405180910390fd5b610b2e848484846117a3565b50505050565b6060610b3f82610edc565b610b7e576040517f08c379a0000000000000000000000000000000000000000000000000000000008152600401610b759061259a565b60405180910390fd5b6000610b886117ff565b90506000815111610ba85760405180602001604052806000815250610bd3565b80610bb284611816565b604051602001610bc39291906125f6565b6040516020818303038152906040525b915050919050565b610be3610f48565b73ffffffffffffffffffffffffffffffffffffffff16610c01610a00565b73ffffffffffffffffffffffffffffffffffffffff1614610c57576040517f08c379a0000000000000000000000000000000000000000000000000000000008152600401610c4e90612508565b60405180910390fd5b80600960006101000a81548173ffffffffffffffffffffffffffffffffffffffff021916908373ffffffffffffffffffffffffffffffffffffffff16021790555050565b60076020528060005260406000206000915090505481565b6000600560008473ffffffffffffffffffffffffffffffffffffffff1673ffffffffffffffffffffffffffffffffffffffff16815260200190815260200160002060008373ffffffffffffffffffffffffffffffffffffffff1673ffffffffffffffffffffffffffffffffffffffff16815260200190815260200160002060009054906101000a900460ff16905092915050565b610d4f610f48565b73ffffffffffffffffffffffffffffffffffffffff16610d6d610a00565b73ffffffffffffffffffffffffffffffffffffffff1614610dc3576040517f08c379a0000000000000000000000000000000000000000000000000000000008152600401610dba90612508565b60405180910390fd5b600073ffffffffffffffffffffffffffffffffffffffff168173ffffffffffffffffffffffffffffffffffffffff161415610e33576040517f08c379a0000000000000000000000000000000000000000000000000000000008152600401610e2a9061268c565b60405180910390fd5b610e3c8161134e565b50565b60086020528060005260406000206000915054906101000a900473ffffffffffffffffffffffffffffffffffffffff1681565b60007f01ffc9a7000000000000000000000000000000000000000000000000000000007bffffffffffffffffffffffffffffffffffffffffffffffffffffffff1916827bffffffffffffffffffffffffffffffffffffffffffffffffffffffff1916149050919050565b60008073ffffffffffffffffffffffffffffffffffffffff166002600084815260200190815260200160002060009054906101000a900473ffffffffffffffffffffffffffffffffffffffff1673ffffffffffffffffffffffffffffffffffffffff1614159050919050565b600033905090565b816004600083815260200190815260200160002060006101000a81548173ffffffffffffffffffffffffffffffffffffffff021916908373ffffffffffffffffffffffffffffffffffffffff160217905550808273ffffffffffffffffffffffffffffffffffffffff16610fc383610786565b73ffffffffffffffffffffffffffffffffffffffff167f8c5be1e5ebec7d5bd14f71427d1e84f3dd0314c0f7b2291e5b200ac8c7c3b92560405160405180910390a45050565b600061101482610edc565b611053576040517f08c379a000000000000000000000000000000000000000000000000000000000815260040161104a9061271e565b60405180910390fd5b600061105e83610786565b90508073ffffffffffffffffffffffffffffffffffffffff168473ffffffffffffffffffffffffffffffffffffffff1614806110cd57508373ffffffffffffffffffffffffffffffffffffffff166110b584610569565b73ffffffffffffffffffffffffffffffffffffffff16145b806110de57506110dd8185610cb3565b5b91505092915050565b8273ffffffffffffffffffffffffffffffffffffffff1661110782610786565b73ffffffffffffffffffffffffffffffffffffffff161461115d576040517f08c379a0000000000000000000000000000000000000000000000000000000008152600401611154906127b0565b60405180910390fd5b600073ffffffffffffffffffffffffffffffffffffffff168273ffffffffffffffffffffffffffffffffffffffff1614156111cd576040517f08c379a00000000000000000000000000000000000000000000000000000000081526004016111c490612842565b60405180910390fd5b6111d8838383611977565b6111e3600082610f50565b6001600360008573ffffffffffffffffffffffffffffffffffffffff1673ffffffffffffffffffffffffffffffffffffffff16815260200190815260200160002060008282546112339190612891565b925050819055506001600360008473ffffffffffffffffffffffffffffffffffffffff1673ffffffffffffffffffffffffffffffffffffffff168152602001908152602001600020600082825461128a91906128c5565b92505081905550816002600083815260200190815260200160002060006101000a81548173ffffffffffffffffffffffffffffffffffffffff021916908373ffffffffffffffffffffffffffffffffffffffff160217905550808273ffffffffffffffffffffffffffffffffffffffff168473ffffffffffffffffffffffffffffffffffffffff167fddf252ad1be2c89b69c2b068fc378daa952ba7f163c4a11628f55a4df523b3ef60405160405180910390a461134983838361197c565b505050565b6000600660009054906101000a900473ffffffffffffffffffffffffffffffffffffffff16905081600660006101000a81548173ffffffffffffffffffffffffffffffffffffffff021916908373ffffffffffffffffffffffffffffffffffffffff1602179055508173ffffffffffffffffffffffffffffffffffffffff168173ffffffffffffffffffffffffffffffffffffffff167f8be0079c531659141344cd1fd0a4f28419497f9722a3daafe3b4186f6b6457e060405160405180910390a35050565b60008190508073ffffffffffffffffffffffffffffffffffffffff166310c1181d6040518163ffffffff1660e01b8152600401602060405180830381865afa158015611464573d6000803e3d6000fd5b505050506040513d601f19601f820116820180604052508101906114889190612930565b600760008473ffffffffffffffffffffffffffffffffffffffff1673ffffffffffffffffffffffffffffffffffffffff1681526020019081526020016000208190555081600860008373ffffffffffffffffffffffffffffffffffffffff166310c1181d6040518163ffffffff1660e01b8152600401602060405180830381865afa15801561151b573d6000803e3d6000fd5b505050506040513d601f19601f8201168201806040525081019061153f9190612930565b815260200190815260200160002060006101000a81548173ffffffffffffffffffffffffffffffffffffffff021916908373ffffffffffffffffffffffffffffffffffffffff1602179055507fb62cedb0baf4106f2334f1171ed38da58d218be16d69ed60b51c895f03a43ce3828273ffffffffffffffffffffffffffffffffffffffff166310c1181d6040518163ffffffff1660e01b8152600401602060405180830381865afa1580156115f8573d6000803e3d6000fd5b505050506040513d601f19601f8201168201806040525081019061161c9190612930565b60405161162a92919061295d565b60405180910390a15050565b8173ffffffffffffffffffffffffffffffffffffffff168373ffffffffffffffffffffffffffffffffffffffff1614156116a5576040517f08c379a000000000000000000000000000000000000000000000000000000000815260040161169c906129d2565b60405180910390fd5b80600560008573ffffffffffffffffffffffffffffffffffffffff1673ffffffffffffffffffffffffffffffffffffffff16815260200190815260200160002060008473ffffffffffffffffffffffffffffffffffffffff1673ffffffffffffffffffffffffffffffffffffffff16815260200190815260200160002060006101000a81548160ff0219169083151502179055508173ffffffffffffffffffffffffffffffffffffffff168373ffffffffffffffffffffffffffffffffffffffff167f17307eab39ab6107e8899845ad3d59bd9653f200f220920489ca2b5937696c31836040516117969190611be0565b60405180910390a3505050565b6117ae8484846110e7565b6117ba84848484611981565b6117f9576040517f08c379a00000000000000000000000000000000000000000000000000000000081526004016117f090612a64565b60405180910390fd5b50505050565b606060405180602001604052806000815250905090565b6060600082141561185e576040518060400160405280600181526020017f30000000000000000000000000000000000000000000000000000000000000008152509050611972565b600082905060005b6000821461189057808061187990612a84565b915050600a826118899190612afc565b9150611866565b60008167ffffffffffffffff8111156118ac576118ab611f01565b5b6040519080825280601f01601f1916602001820160405280156118de5781602001600182028036833780820191505090505b5090505b6000851461196b576001826118f79190612891565b9150600a856119069190612b2d565b603061191291906128c5565b60f81b81838151811061192857611927612b5e565b5b60200101907effffffffffffffffffffffffffffffffffffffffffffffffffffffffffffff1916908160001a905350600a856119649190612afc565b94506118e2565b8093505050505b919050565b505050565b505050565b60006119a28473ffffffffffffffffffffffffffffffffffffffff16611b09565b15611afc578373ffffffffffffffffffffffffffffffffffffffff1663150b7a026119cb610f48565b8786866040518563ffffffff1660e01b81526004016119ed9493929190612be2565b6020604051808303816000875af1925050508015611a2957506040513d601f19601f82011682018060405250810190611a269190612c43565b60015b611aac573d8060008114611a59576040519150601f19603f3d011682016040523d82523d6000602084013e611a5e565b606091505b50600081511415611aa4576040517f08c379a0000000000000000000000000000000000000000000000000000000008152600401611a9b90612a64565b60405180910390fd5b805181602001fd5b63150b7a0260e01b7bffffffffffffffffffffffffffffffffffffffffffffffffffffffff1916817bffffffffffffffffffffffffffffffffffffffffffffffffffffffff191614915050611b01565b600190505b949350505050565b6000808273ffffffffffffffffffffffffffffffffffffffff163b119050919050565b6000604051905090565b600080fd5b600080fd5b60007fffffffff0000000000000000000000000000000000000000000000000000000082169050919050565b611b7581611b40565b8114611b8057600080fd5b50565b600081359050611b9281611b6c565b92915050565b600060208284031215611bae57611bad611b36565b5b6000611bbc84828501611b83565b91505092915050565b60008115159050919050565b611bda81611bc5565b82525050565b6000602082019050611bf56000830184611bd1565b92915050565b600081519050919050565b600082825260208201905092915050565b60005b83811015611c35578082015181840152602081019050611c1a565b83811115611c44576000848401525b50505050565b6000601f19601f8301169050919050565b6000611c6682611bfb565b611c708185611c06565b9350611c80818560208601611c17565b611c8981611c4a565b840191505092915050565b60006020820190508181036000830152611cae8184611c5b565b905092915050565b6000819050919050565b611cc981611cb6565b8114611cd457600080fd5b50565b600081359050611ce681611cc0565b92915050565b600060208284031215611d0257611d01611b36565b5b6000611d1084828501611cd7565b91505092915050565b600073ffffffffffffffffffffffffffffffffffffffff82169050919050565b6000611d4482611d19565b9050919050565b611d5481611d39565b82525050565b6000602082019050611d6f6000830184611d4b565b92915050565b611d7e81611d39565b8114611d8957600080fd5b50565b600081359050611d9b81611d75565b92915050565b60008060408385031215611db857611db7611b36565b5b6000611dc685828601611d8c565b9250506020611dd785828601611cd7565b9150509250929050565b600080600060608486031215611dfa57611df9611b36565b5b6000611e0886828701611d8c565b9350506020611e1986828701611d8c565b9250506040611e2a86828701611cd7565b9150509250925092565b600060208284031215611e4a57611e49611b36565b5b6000611e5884828501611d8c565b91505092915050565b611e6a81611cb6565b82525050565b6000602082019050611e856000830184611e61565b92915050565b611e9481611bc5565b8114611e9f57600080fd5b50565b600081359050611eb181611e8b565b92915050565b60008060408385031215611ece57611ecd611b36565b5b6000611edc85828601611d8c565b9250506020611eed85828601611ea2565b9150509250929050565b600080fd5b600080fd5b7f4e487b7100000000000000000000000000000000000000000000000000000000600052604160045260246000fd5b611f3982611c4a565b810181811067ffffffffffffffff82111715611f5857611f57611f01565b5b80604052505050565b6000611f6b611b2c565b9050611f778282611f30565b919050565b600067ffffffffffffffff821115611f9757611f96611f01565b5b611fa082611c4a565b9050602081019050919050565b82818337600083830152505050565b6000611fcf611fca84611f7c565b611f61565b905082815260208101848484011115611feb57611fea611efc565b5b611ff6848285611fad565b509392505050565b600082601f83011261201357612012611ef7565b5b8135612023848260208601611fbc565b91505092915050565b6000806000806080858703121561204657612045611b36565b5b600061205487828801611d8c565b945050602061206587828801611d8c565b935050604061207687828801611cd7565b925050606085013567ffffffffffffffff81111561209757612096611b3b565b5b6120a387828801611ffe565b91505092959194509250565b600080604083850312156120c6576120c5611b36565b5b60006120d485828601611d8c565b92505060206120e585828601611d8c565b9150509250929050565b7f4e487b7100000000000000000000000000000000000000000000000000000000600052602260045260246000fd5b6000600282049050600182168061213657607f821691505b6020821081141561214a576121496120ef565b5b50919050565b7f4552433732313a20617070726f76656420717565727920666f72206e6f6e657860008201527f697374656e7420746f6b656e0000000000000000000000000000000000000000602082015250565b60006121ac602c83611c06565b91506121b782612150565b604082019050919050565b600060208201905081810360008301526121db8161219f565b9050919050565b7f4552433732313a20617070726f76616c20746f2063757272656e74206f776e6560008201527f7200000000000000000000000000000000000000000000000000000000000000602082015250565b600061223e602183611c06565b9150612249826121e2565b604082019050919050565b6000602082019050818103600083015261226d81612231565b9050919050565b7f4552433732313a20617070726f76652063616c6c6572206973206e6f74206f7760008201527f6e6572206e6f7220617070726f76656420666f7220616c6c0000000000000000602082015250565b60006122d0603883611c06565b91506122db82612274565b604082019050919050565b600060208201905081810360008301526122ff816122c3565b9050919050565b7f4552433732313a207472616e736665722063616c6c6572206973206e6f74206f60008201527f776e6572206e6f7220617070726f766564000000000000000000000000000000602082015250565b6000612362603183611c06565b915061236d82612306565b604082019050919050565b6000602082019050818103600083015261239181612355565b9050919050565b7f4552433732313a206f776e657220717565727920666f72206e6f6e657869737460008201527f656e7420746f6b656e0000000000000000000000000000000000000000000000602082015250565b60006123f4602983611c06565b91506123ff82612398565b604082019050919050565b60006020820190508181036000830152612423816123e7565b9050919050565b7f4552433732313a2062616c616e636520717565727920666f7220746865207a6560008201527f726f206164647265737300000000000000000000000000000000000000000000602082015250565b6000612486602a83611c06565b91506124918261242a565b604082019050919050565b600060208201905081810360008301526124b581612479565b9050919050565b7f4f776e61626c653a2063616c6c6572206973206e6f7420746865206f776e6572600082015250565b60006124f2602083611c06565b91506124fd826124bc565b602082019050919050565b60006020820190508181036000830152612521816124e5565b9050919050565b7f4552433732314d657461646174613a2055524920717565727920666f72206e6f60008201527f6e6578697374656e7420746f6b656e0000000000000000000000000000000000602082015250565b6000612584602f83611c06565b915061258f82612528565b604082019050919050565b600060208201905081810360008301526125b381612577565b9050919050565b600081905092915050565b60006125d082611bfb565b6125da81856125ba565b93506125ea818560208601611c17565b80840191505092915050565b600061260282856125c5565b915061260e82846125c5565b91508190509392505050565b7f4f776e61626c653a206e6577206f776e657220697320746865207a65726f206160008201527f6464726573730000000000000000000000000000000000000000000000000000602082015250565b6000612676602683611c06565b91506126818261261a565b604082019050919050565b600060208201905081810360008301526126a581612669565b9050919050565b7f4552433732313a206f70657261746f7220717565727920666f72206e6f6e657860008201527f697374656e7420746f6b656e0000000000000000000000000000000000000000602082015250565b6000612708602c83611c06565b9150612713826126ac565b604082019050919050565b60006020820190508181036000830152612737816126fb565b9050919050565b7f4552433732313a207472616e736665722066726f6d20696e636f72726563742060008201527f6f776e6572000000000000000000000000000000000000000000000000000000602082015250565b600061279a602583611c06565b91506127a58261273e565b604082019050919050565b600060208201905081810360008301526127c98161278d565b9050919050565b7f4552433732313a207472616e7366657220746f20746865207a65726f2061646460008201527f7265737300000000000000000000000000000000000000000000000000000000602082015250565b600061282c602483611c06565b9150612837826127d0565b604082019050919050565b6000602082019050818103600083015261285b8161281f565b9050919050565b7f4e487b7100000000000000000000000000000000000000000000000000000000600052601160045260246000fd5b600061289c82611cb6565b91506128a783611cb6565b9250828210156128ba576128b9612862565b5b828203905092915050565b60006128d082611cb6565b91506128db83611cb6565b9250827fffffffffffffffffffffffffffffffffffffffffffffffffffffffffffffffff038211156129105761290f612862565b5b828201905092915050565b60008151905061292a81611cc0565b92915050565b60006020828403121561294657612945611b36565b5b60006129548482850161291b565b91505092915050565b60006040820190506129726000830185611d4b565b61297f6020830184611e61565b9392505050565b7f4552433732313a20617070726f766520746f2063616c6c657200000000000000600082015250565b60006129bc601983611c06565b91506129c782612986565b602082019050919050565b600060208201905081810360008301526129eb816129af565b9050919050565b7f4552433732313a207472616e7366657220746f206e6f6e20455243373231526560008201527f63656976657220696d706c656d656e7465720000000000000000000000000000602082015250565b6000612a4e603283611c06565b9150612a59826129f2565b604082019050919050565b60006020820190508181036000830152612a7d81612a41565b9050919050565b6000612a8f82611cb6565b91507fffffffffffffffffffffffffffffffffffffffffffffffffffffffffffffffff821415612ac257612ac1612862565b5b600182019050919050565b7f4e487b7100000000000000000000000000000000000000000000000000000000600052601260045260246000fd5b6000612b0782611cb6565b9150612b1283611cb6565b925082612b2257612b21612acd565b5b828204905092915050565b6000612b3882611cb6565b9150612b4383611cb6565b925082612b5357612b52612acd565b5b828206905092915050565b7f4e487b7100000000000000000000000000000000000000000000000000000000600052603260045260246000fd5b600081519050919050565b600082825260208201905092915050565b6000612bb482612b8d565b612bbe8185612b98565b9350612bce818560208601611c17565b612bd781611c4a565b840191505092915050565b6000608082019050612bf76000830187611d4b565b612c046020830186611d4b565b612c116040830185611e61565b8181036060830152612c238184612ba9565b905095945050505050565b600081519050612c3d81611b6c565b92915050565b600060208284031215612c5957612c58611b36565b5b6000612c6784828501612c2e565b9150509291505056fea264697066735822122065f565eff441a156008284257b041149fc559d0995de6a111c81c9e3128adf2764736f6c634300080a0033",
  "linkReferences": {},
  "deployedLinkReferences": {}
}