{
  "_format": "hh-sol-artifact-1",
  "contractName": "BadgeFactory",
  "sourceName": "contracts/BadgeFactory.sol",
  "abi": [
    {
      "inputs": [
        {
          "internalType": "string",
          "name": "name",
          "type": "string"
        },
        {
          "internalType": "string",
          "name": "symbol",
          "type": "string"
        },
        {
          "internalType": "string",
          "name": "uri",
          "type": "string"
        }
      ],
      "stateMutability": "nonpayable",
      "type": "constructor"
    },
    {
      "anonymous": false,
      "inputs": [
        {
          "indexed": true,
          "internalType": "address",
          "name": "owner",
          "type": "address"
        },
        {
          "indexed": true,
          "internalType": "address",
          "name": "approved",
          "type": "address"
        },
        {
          "indexed": true,
          "internalType": "uint256",
          "name": "tokenId",
          "type": "uint256"
        }
      ],
      "name": "Approval",
      "type": "event"
    },
    {
      "anonymous": false,
      "inputs": [
        {
          "indexed": true,
          "internalType": "address",
          "name": "owner",
          "type": "address"
        },
        {
          "indexed": true,
          "internalType": "address",
          "name": "operator",
          "type": "address"
        },
        {
          "indexed": false,
          "internalType": "bool",
          "name": "approved",
          "type": "bool"
        }
      ],
      "name": "ApprovalForAll",
      "type": "event"
    },
    {
      "anonymous": false,
      "inputs": [
        {
          "indexed": false,
          "internalType": "address",
          "name": "owner",
          "type": "address"
        },
        {
          "indexed": false,
          "internalType": "uint256",
          "name": "memberId",
          "type": "uint256"
        }
      ],
      "name": "NewBadge",
      "type": "event"
    },
    {
      "anonymous": false,
      "inputs": [
        {
          "indexed": true,
          "internalType": "address",
          "name": "previousOwner",
          "type": "address"
        },
        {
          "indexed": true,
          "internalType": "address",
          "name": "newOwner",
          "type": "address"
        }
      ],
      "name": "OwnershipTransferred",
      "type": "event"
    },
    {
      "anonymous": false,
      "inputs": [
        {
          "indexed": true,
          "internalType": "address",
          "name": "from",
          "type": "address"
        },
        {
          "indexed": true,
          "internalType": "address",
          "name": "to",
          "type": "address"
        },
        {
          "indexed": true,
          "internalType": "uint256",
          "name": "tokenId",
          "type": "uint256"
        }
      ],
      "name": "Transfer",
      "type": "event"
    },
    {
      "inputs": [
        {
          "internalType": "address",
          "name": "member",
          "type": "address"
        }
      ],
      "name": "addDaoMember",
      "outputs": [],
      "stateMutability": "nonpayable",
      "type": "function"
    },
    {
      "inputs": [
        {
          "internalType": "string",
          "name": "message",
          "type": "string"
        },
        {
          "internalType": "string",
          "name": "stripeURI",
          "type": "string"
        }
      ],
      "name": "addNewStripe",
      "outputs": [],
      "stateMutability": "nonpayable",
      "type": "function"
    },
    {
      "inputs": [
        {
          "internalType": "address",
          "name": "",
          "type": "address"
        }
      ],
      "name": "addrToBadgeFactory",
      "outputs": [
        {
          "internalType": "address",
          "name": "",
          "type": "address"
        }
      ],
      "stateMutability": "view",
      "type": "function"
    },
    {
      "inputs": [
        {
          "internalType": "address",
          "name": "",
          "type": "address"
        }
      ],
      "name": "addrToMemberId",
      "outputs": [
        {
          "internalType": "uint256",
          "name": "",
          "type": "uint256"
        }
      ],
      "stateMutability": "view",
      "type": "function"
    },
    {
      "inputs": [
        {
          "internalType": "address",
          "name": "to",
          "type": "address"
        },
        {
          "internalType": "uint256",
          "name": "tokenId",
          "type": "uint256"
        }
      ],
      "name": "approve",
      "outputs": [],
      "stateMutability": "nonpayable",
      "type": "function"
    },
    {
      "inputs": [
        {
          "internalType": "uint256",
          "name": "memberId",
          "type": "uint256"
        },
        {
          "internalType": "bool",
          "name": "vote",
          "type": "bool"
        },
        {
          "internalType": "string",
          "name": "message",
          "type": "string"
        }
      ],
      "name": "attestToLatestStripe",
      "outputs": [],
      "stateMutability": "nonpayable",
      "type": "function"
    },
    {
      "inputs": [
        {
          "internalType": "uint256",
          "name": "stripeId",
          "type": "uint256"
        },
        {
          "internalType": "uint256",
          "name": "memberId",
          "type": "uint256"
        },
        {
          "internalType": "bool",
          "name": "vote",
          "type": "bool"
        },
        {
          "internalType": "string",
          "name": "message",
          "type": "string"
        }
      ],
      "name": "attestToStripe",
      "outputs": [],
      "stateMutability": "nonpayable",
      "type": "function"
    },
    {
      "inputs": [
        {
          "internalType": "address",
          "name": "owner",
          "type": "address"
        }
      ],
      "name": "balanceOf",
      "outputs": [
        {
          "internalType": "uint256",
          "name": "",
          "type": "uint256"
        }
      ],
      "stateMutability": "view",
      "type": "function"
    },
    {
      "inputs": [],
      "name": "baseURI",
      "outputs": [
        {
          "internalType": "string",
          "name": "",
          "type": "string"
        }
      ],
      "stateMutability": "view",
      "type": "function"
    },
    {
      "inputs": [
        {
          "internalType": "address[]",
          "name": "members",
          "type": "address[]"
        }
      ],
      "name": "batchAddMembers",
      "outputs": [],
      "stateMutability": "nonpayable",
      "type": "function"
    },
    {
      "inputs": [
        {
          "internalType": "string",
          "name": "message",
          "type": "string"
        },
        {
          "internalType": "string",
          "name": "contribType",
          "type": "string"
        },
        {
          "internalType": "string",
          "name": "uri",
          "type": "string"
        }
      ],
      "name": "contribToLatestStripe",
      "outputs": [],
      "stateMutability": "nonpayable",
      "type": "function"
    },
    {
      "inputs": [
        {
          "internalType": "uint256",
          "name": "stripeId",
          "type": "uint256"
        },
        {
          "internalType": "string",
          "name": "message",
          "type": "string"
        },
        {
          "internalType": "string",
          "name": "contribType",
          "type": "string"
        },
        {
          "internalType": "string",
          "name": "uri",
          "type": "string"
        }
      ],
      "name": "contribToStripe",
      "outputs": [],
      "stateMutability": "nonpayable",
      "type": "function"
    },
    {
      "inputs": [
        {
          "internalType": "uint256",
          "name": "",
          "type": "uint256"
        }
      ],
      "name": "discordUsernameById",
      "outputs": [
        {
          "internalType": "string",
          "name": "",
          "type": "string"
        }
      ],
      "stateMutability": "view",
      "type": "function"
    },
    {
      "inputs": [
        {
          "internalType": "uint256",
          "name": "id",
          "type": "uint256"
        },
        {
          "internalType": "string",
          "name": "uri",
          "type": "string"
        }
      ],
      "name": "editBadgeURI",
      "outputs": [],
      "stateMutability": "nonpayable",
      "type": "function"
    },
    {
      "inputs": [
        {
          "internalType": "uint256",
          "name": "id",
          "type": "uint256"
        }
      ],
      "name": "getAddressById",
      "outputs": [
        {
          "internalType": "address",
          "name": "",
          "type": "address"
        }
      ],
      "stateMutability": "view",
      "type": "function"
    },
    {
      "inputs": [
        {
          "internalType": "uint256",
          "name": "tokenId",
          "type": "uint256"
        }
      ],
      "name": "getApproved",
      "outputs": [
        {
          "internalType": "address",
          "name": "",
          "type": "address"
        }
      ],
      "stateMutability": "view",
      "type": "function"
    },
    {
      "inputs": [
        {
          "internalType": "uint256",
          "name": "memberId",
          "type": "uint256"
        },
        {
          "internalType": "uint256",
          "name": "stripeId",
          "type": "uint256"
        },
        {
          "internalType": "uint256",
          "name": "attestId",
          "type": "uint256"
        }
      ],
      "name": "getAttestAddress",
      "outputs": [
        {
          "internalType": "address",
          "name": "",
          "type": "address"
        }
      ],
      "stateMutability": "view",
      "type": "function"
    },
    {
      "inputs": [
        {
          "internalType": "uint256",
          "name": "memberId",
          "type": "uint256"
        },
        {
          "internalType": "uint256",
          "name": "stripeId",
          "type": "uint256"
        },
        {
          "internalType": "uint256",
          "name": "attestId",
          "type": "uint256"
        }
      ],
      "name": "getAttestMessage",
      "outputs": [
        {
          "internalType": "string",
          "name": "",
          "type": "string"
        }
      ],
      "stateMutability": "view",
      "type": "function"
    },
    {
      "inputs": [
        {
          "internalType": "uint256",
          "name": "memberId",
          "type": "uint256"
        },
        {
          "internalType": "uint256",
          "name": "stripeId",
          "type": "uint256"
        },
        {
          "internalType": "uint256",
          "name": "attestId",
          "type": "uint256"
        }
      ],
      "name": "getAttestTime",
      "outputs": [
        {
          "internalType": "uint256",
          "name": "",
          "type": "uint256"
        }
      ],
      "stateMutability": "view",
      "type": "function"
    },
    {
      "inputs": [
        {
          "internalType": "uint256",
          "name": "memberId",
          "type": "uint256"
        },
        {
          "internalType": "uint256",
          "name": "stripeId",
          "type": "uint256"
        },
        {
          "internalType": "uint256",
          "name": "attestId",
          "type": "uint256"
        }
      ],
      "name": "getAttestVote",
      "outputs": [
        {
          "internalType": "bool",
          "name": "",
          "type": "bool"
        }
      ],
      "stateMutability": "view",
      "type": "function"
    },
    {
      "inputs": [
        {
          "internalType": "uint256",
          "name": "memberId",
          "type": "uint256"
        },
        {
          "internalType": "uint256",
          "name": "stripeId",
          "type": "uint256"
        },
        {
          "internalType": "uint256",
          "name": "contribId",
          "type": "uint256"
        }
      ],
      "name": "getContribAddress",
      "outputs": [
        {
          "internalType": "address",
          "name": "",
          "type": "address"
        }
      ],
      "stateMutability": "view",
      "type": "function"
    },
    {
      "inputs": [
        {
          "internalType": "uint256",
          "name": "memberId",
          "type": "uint256"
        },
        {
          "internalType": "uint256",
          "name": "stripeId",
          "type": "uint256"
        },
        {
          "internalType": "uint256",
          "name": "contribId",
          "type": "uint256"
        }
      ],
      "name": "getContribMessage",
      "outputs": [
        {
          "internalType": "string",
          "name": "",
          "type": "string"
        }
      ],
      "stateMutability": "view",
      "type": "function"
    },
    {
      "inputs": [
        {
          "internalType": "uint256",
          "name": "memberId",
          "type": "uint256"
        },
        {
          "internalType": "uint256",
          "name": "stripeId",
          "type": "uint256"
        }
      ],
      "name": "getContribMessagesById",
      "outputs": [
        {
          "internalType": "string[]",
          "name": "",
          "type": "string[]"
        }
      ],
      "stateMutability": "view",
      "type": "function"
    },
    {
      "inputs": [
        {
          "internalType": "uint256",
          "name": "memberId",
          "type": "uint256"
        },
        {
          "internalType": "uint256",
          "name": "stripeId",
          "type": "uint256"
        },
        {
          "internalType": "uint256",
          "name": "contribId",
          "type": "uint256"
        }
      ],
      "name": "getContribTime",
      "outputs": [
        {
          "internalType": "uint256",
          "name": "",
          "type": "uint256"
        }
      ],
      "stateMutability": "view",
      "type": "function"
    },
    {
      "inputs": [
        {
          "internalType": "uint256",
          "name": "memberId",
          "type": "uint256"
        },
        {
          "internalType": "uint256",
          "name": "stripeId",
          "type": "uint256"
        },
        {
          "internalType": "uint256",
          "name": "contribId",
          "type": "uint256"
        }
      ],
      "name": "getContribType",
      "outputs": [
        {
          "internalType": "string",
          "name": "",
          "type": "string"
        }
      ],
      "stateMutability": "view",
      "type": "function"
    },
    {
      "inputs": [
        {
          "internalType": "uint256",
          "name": "memberId",
          "type": "uint256"
        },
        {
          "internalType": "uint256",
          "name": "stripeId",
          "type": "uint256"
        },
        {
          "internalType": "uint256",
          "name": "contribId",
          "type": "uint256"
        }
      ],
      "name": "getContribUri",
      "outputs": [
        {
          "internalType": "string",
          "name": "",
          "type": "string"
        }
      ],
      "stateMutability": "view",
      "type": "function"
    },
    {
      "inputs": [
        {
          "internalType": "uint256",
          "name": "memberId",
          "type": "uint256"
        }
      ],
      "name": "getLatestStripeId",
      "outputs": [
        {
          "internalType": "uint256",
          "name": "",
          "type": "uint256"
        }
      ],
      "stateMutability": "view",
      "type": "function"
    },
    {
      "inputs": [
        {
          "internalType": "uint256",
          "name": "memberId",
          "type": "uint256"
        }
      ],
      "name": "getStripeCount",
      "outputs": [
        {
          "internalType": "uint256",
          "name": "",
          "type": "uint256"
        }
      ],
      "stateMutability": "view",
      "type": "function"
    },
    {
      "inputs": [
        {
          "internalType": "uint256",
          "name": "memberId",
          "type": "uint256"
        },
        {
          "internalType": "uint256",
          "name": "stripeId",
          "type": "uint256"
        }
      ],
      "name": "getStripeMessageById",
      "outputs": [
        {
          "internalType": "string",
          "name": "message",
          "type": "string"
        }
      ],
      "stateMutability": "view",
      "type": "function"
    },
    {
      "inputs": [
        {
          "internalType": "uint256",
          "name": "memberId",
          "type": "uint256"
        },
        {
          "internalType": "uint256",
          "name": "stripeId",
          "type": "uint256"
        }
      ],
      "name": "getStripeUriById",
      "outputs": [
        {
          "internalType": "string",
          "name": "uri",
          "type": "string"
        }
      ],
      "stateMutability": "view",
      "type": "function"
    },
    {
      "inputs": [
        {
          "internalType": "address",
          "name": "owner",
          "type": "address"
        },
        {
          "internalType": "address",
          "name": "operator",
          "type": "address"
        }
      ],
      "name": "isApprovedForAll",
      "outputs": [
        {
          "internalType": "bool",
          "name": "",
          "type": "bool"
        }
      ],
      "stateMutability": "view",
      "type": "function"
    },
    {
      "inputs": [
        {
          "components": [
            {
              "internalType": "address",
              "name": "contributor",
              "type": "address"
            },
            {
              "internalType": "uint256",
              "name": "time",
              "type": "uint256"
            },
            {
              "internalType": "string",
              "name": "message",
              "type": "string"
            },
            {
              "internalType": "string",
              "name": "contribType",
              "type": "string"
            },
            {
              "internalType": "string",
              "name": "uri",
              "type": "string"
            }
          ],
          "internalType": "struct cContribution.Contribution",
          "name": "c",
          "type": "tuple"
        }
      ],
      "name": "messageOf",
      "outputs": [
        {
          "internalType": "string",
          "name": "",
          "type": "string"
        }
      ],
      "stateMutability": "pure",
      "type": "function"
    },
    {
      "inputs": [],
      "name": "name",
      "outputs": [
        {
          "internalType": "string",
          "name": "",
          "type": "string"
        }
      ],
      "stateMutability": "view",
      "type": "function"
    },
    {
      "inputs": [],
      "name": "owner",
      "outputs": [
        {
          "internalType": "address",
          "name": "",
          "type": "address"
        }
      ],
      "stateMutability": "view",
      "type": "function"
    },
    {
      "inputs": [
        {
          "internalType": "uint256",
          "name": "tokenId",
          "type": "uint256"
        }
      ],
      "name": "ownerOf",
      "outputs": [
        {
          "internalType": "address",
          "name": "",
          "type": "address"
        }
      ],
      "stateMutability": "view",
      "type": "function"
    },
    {
      "inputs": [],
      "name": "renounceOwnership",
      "outputs": [],
      "stateMutability": "nonpayable",
      "type": "function"
    },
    {
      "inputs": [
        {
          "internalType": "address",
          "name": "from",
          "type": "address"
        },
        {
          "internalType": "address",
          "name": "to",
          "type": "address"
        },
        {
          "internalType": "uint256",
          "name": "tokenId",
          "type": "uint256"
        }
      ],
      "name": "safeTransferFrom",
      "outputs": [],
      "stateMutability": "nonpayable",
      "type": "function"
    },
    {
      "inputs": [
        {
          "internalType": "address",
          "name": "from",
          "type": "address"
        },
        {
          "internalType": "address",
          "name": "to",
          "type": "address"
        },
        {
          "internalType": "uint256",
          "name": "tokenId",
          "type": "uint256"
        },
        {
          "internalType": "bytes",
          "name": "_data",
          "type": "bytes"
        }
      ],
      "name": "safeTransferFrom",
      "outputs": [],
      "stateMutability": "nonpayable",
      "type": "function"
    },
    {
      "inputs": [
        {
          "internalType": "address",
          "name": "operator",
          "type": "address"
        },
        {
          "internalType": "bool",
          "name": "approved",
          "type": "bool"
        }
      ],
      "name": "setApprovalForAll",
      "outputs": [],
      "stateMutability": "nonpayable",
      "type": "function"
    },
    {
      "inputs": [
        {
          "internalType": "address",
          "name": "token",
          "type": "address"
        }
      ],
      "name": "setDaoTokenAddress",
      "outputs": [],
      "stateMutability": "nonpayable",
      "type": "function"
    },
    {
      "inputs": [
        {
          "internalType": "uint256",
          "name": "",
          "type": "uint256"
        }
      ],
      "name": "stripeCount",
      "outputs": [
        {
          "internalType": "uint256",
          "name": "",
          "type": "uint256"
        }
      ],
      "stateMutability": "view",
      "type": "function"
    },
    {
      "inputs": [
        {
          "internalType": "uint256",
          "name": "",
          "type": "uint256"
        },
        {
          "internalType": "uint256",
          "name": "",
          "type": "uint256"
        }
      ],
      "name": "stripesById",
      "outputs": [
        {
          "internalType": "string",
          "name": "message",
          "type": "string"
        },
        {
          "internalType": "string",
          "name": "uri",
          "type": "string"
        },
        {
          "internalType": "uint256",
          "name": "contribSize",
          "type": "uint256"
        },
        {
          "internalType": "uint256",
          "name": "attestSize",
          "type": "uint256"
        }
      ],
      "stateMutability": "view",
      "type": "function"
    },
    {
      "inputs": [
        {
          "internalType": "bytes4",
          "name": "interfaceId",
          "type": "bytes4"
        }
      ],
      "name": "supportsInterface",
      "outputs": [
        {
          "internalType": "bool",
          "name": "",
          "type": "bool"
        }
      ],
      "stateMutability": "view",
      "type": "function"
    },
    {
      "inputs": [],
      "name": "symbol",
      "outputs": [
        {
          "internalType": "string",
          "name": "",
          "type": "string"
        }
      ],
      "stateMutability": "view",
      "type": "function"
    },
    {
      "inputs": [
        {
          "internalType": "uint256",
          "name": "tokenId",
          "type": "uint256"
        }
      ],
      "name": "tokenURI",
      "outputs": [
        {
          "internalType": "string",
          "name": "",
          "type": "string"
        }
      ],
      "stateMutability": "view",
      "type": "function"
    },
    {
      "inputs": [
        {
          "internalType": "address",
          "name": "from",
          "type": "address"
        },
        {
          "internalType": "address",
          "name": "to",
          "type": "address"
        },
        {
          "internalType": "uint256",
          "name": "tokenId",
          "type": "uint256"
        }
      ],
      "name": "transferFrom",
      "outputs": [],
      "stateMutability": "nonpayable",
      "type": "function"
    },
    {
      "inputs": [
        {
          "internalType": "address",
          "name": "newOwner",
          "type": "address"
        }
      ],
      "name": "transferOwnership",
      "outputs": [],
      "stateMutability": "nonpayable",
      "type": "function"
    }
  ],
  "bytecode": "0x60806040523480156200001157600080fd5b5060405162005d2238038062005d2283398181016040528101906200003791906200044a565b828281816200005b6200004f6200013160201b60201c565b6200013960201b60201c565b816001908051906020019062000073929190620001fd565b5080600290805190602001906200008c929190620001fd565b505050505080600e9080519060200190620000a9929190620001fd565b5030601060003373ffffffffffffffffffffffffffffffffffffffff1673ffffffffffffffffffffffffffffffffffffffff16815260200190815260200160002060006101000a81548173ffffffffffffffffffffffffffffffffffffffff021916908373ffffffffffffffffffffffffffffffffffffffff16021790555050505062000568565b600033905090565b60008060009054906101000a900473ffffffffffffffffffffffffffffffffffffffff169050816000806101000a81548173ffffffffffffffffffffffffffffffffffffffff021916908373ffffffffffffffffffffffffffffffffffffffff1602179055508173ffffffffffffffffffffffffffffffffffffffff168173ffffffffffffffffffffffffffffffffffffffff167f8be0079c531659141344cd1fd0a4f28419497f9722a3daafe3b4186f6b6457e060405160405180910390a35050565b8280546200020b9062000532565b90600052602060002090601f0160209004810192826200022f57600085556200027b565b82601f106200024a57805160ff19168380011785556200027b565b828001600101855582156200027b579182015b828111156200027a5782518255916020019190600101906200025d565b5b5090506200028a91906200028e565b5090565b5b80821115620002a95760008160009055506001016200028f565b5090565b6000604051905090565b600080fd5b600080fd5b600080fd5b600080fd5b6000601f19601f8301169050919050565b7f4e487b7100000000000000000000000000000000000000000000000000000000600052604160045260246000fd5b6200031682620002cb565b810181811067ffffffffffffffff82111715620003385762000337620002dc565b5b80604052505050565b60006200034d620002ad565b90506200035b82826200030b565b919050565b600067ffffffffffffffff8211156200037e576200037d620002dc565b5b6200038982620002cb565b9050602081019050919050565b60005b83811015620003b657808201518184015260208101905062000399565b83811115620003c6576000848401525b50505050565b6000620003e3620003dd8462000360565b62000341565b905082815260208101848484011115620004025762000401620002c6565b5b6200040f84828562000396565b509392505050565b600082601f8301126200042f576200042e620002c1565b5b815162000441848260208601620003cc565b91505092915050565b600080600060608486031215620004665762000465620002b7565b5b600084015167ffffffffffffffff811115620004875762000486620002bc565b5b620004958682870162000417565b935050602084015167ffffffffffffffff811115620004b957620004b8620002bc565b5b620004c78682870162000417565b925050604084015167ffffffffffffffff811115620004eb57620004ea620002bc565b5b620004f98682870162000417565b9150509250925092565b7f4e487b7100000000000000000000000000000000000000000000000000000000600052602260045260246000fd5b600060028204905060018216806200054b57607f821691505b6020821081141562000562576200056162000503565b5b50919050565b6157aa80620005786000396000f3fe608060405234801561001057600080fd5b50600436106102945760003560e01c80638da5cb5b11610167578063c87b56dd116100ce578063e231924911610087578063e2319249146108c3578063e441ee4e146108f3578063e644ba3d14610923578063e985e9c514610953578063ed7cf0eb14610983578063f2fde38b146109b657610294565b8063c87b56dd146107b7578063d2464f19146107e7578063d519ffa414610817578063dc39ace214610833578063ddfec01214610863578063dfb12ae01461089357610294565b8063a4645a2311610120578063a4645a23146106d3578063a69d5be7146106ef578063b88d4fde1461070b578063baa6380d14610727578063bb4d88f114610757578063c69878af1461078757610294565b80638da5cb5b1461061357806395d89b41146106315780639a8867641461064f5780639be45e8f1461066b5780639c9f88691461069b578063a22cb465146106b757610294565b806342842e0e1161020b5780637b88532e116101c45780637b88532e1461052f5780637cf0b5db1461054b578063858cb54d1461057b578063864defa214610597578063873fd22f146105b35780638d80c922146105e357610294565b806342842e0e1461045b578063439ff7ec146104775780636352211e146104a75780636c0360eb146104d757806370a08231146104f5578063715018a61461052557610294565b8063095ea7b31161025d578063095ea7b3146103775780630df54bfb146103935780631ca33227146103c357806323b872dd146103f357806324d5404b1461040f5780633b4653411461042b57610294565b8062952efb1461029957806301ffc9a7146102c957806304bf0fed146102f957806306fdde0314610329578063081812fc14610347575b600080fd5b6102b360048036038101906102ae9190613ba7565b6109d2565b6040516102c09190613c93565b60405180910390f35b6102e360048036038101906102de9190613d0d565b6109ec565b6040516102f09190613d55565b60405180910390f35b610313600480360381019061030e9190613fed565b610ace565b6040516103209190613c93565b60405180910390f35b610331610adc565b60405161033e9190613c93565b60405180910390f35b610361600480360381019061035c9190614036565b610b6e565b60405161036e9190614072565b60405180910390f35b610391600480360381019061038c919061408d565b610bf3565b005b6103ad60048036038101906103a89190613ba7565b610d0b565b6040516103ba9190613d55565b60405180910390f35b6103dd60048036038101906103d89190613ba7565b610d25565b6040516103ea9190613c93565b60405180910390f35b61040d600480360381019061040891906140cd565b610d3f565b005b6104296004803603810190610424919061414c565b610d9f565b005b610445600480360381019061044091906141cf565b610e0a565b6040516104529190614072565b60405180910390f35b610475600480360381019061047091906140cd565b610e3d565b005b610491600480360381019061048c9190614036565b610e5d565b60405161049e919061420b565b60405180910390f35b6104c160048036038101906104bc9190614036565b610e7a565b6040516104ce9190614072565b60405180910390f35b6104df610f2c565b6040516104ec9190613c93565b60405180910390f35b61050f600480360381019061050a91906141cf565b610fba565b60405161051c919061420b565b60405180910390f35b61052d611072565b005b61054960048036038101906105449190614226565b6110fa565b005b61056560048036038101906105609190613ba7565b611260565b6040516105729190613c93565b60405180910390f35b61059560048036038101906105909190614395565b61127a565b005b6105b160048036038101906105ac91906141cf565b61133c565b005b6105cd60048036038101906105c89190613ba7565b61144f565b6040516105da9190614072565b60405180910390f35b6105fd60048036038101906105f89190614036565b611469565b60405161060a9190614072565b60405180910390f35b61061b61147b565b6040516106289190614072565b60405180910390f35b6106396114a4565b6040516106469190613c93565b60405180910390f35b610669600480360381019061066491906143de565b611536565b005b61068560048036038101906106809190614499565b6116f4565b6040516106929190613c93565b60405180910390f35b6106b560048036038101906106b091906144d9565b6117ae565b005b6106d160048036038101906106cc9190614548565b611817565b005b6106ed60048036038101906106e89190614588565b61182d565b005b610709600480360381019061070491906145e4565b61183b565b005b610725600480360381019061072091906146fd565b6119b7565b005b610741600480360381019061073c9190613ba7565b611a19565b60405161074e919061420b565b60405180910390f35b610771600480360381019061076c9190614036565b611a33565b60405161077e919061420b565b60405180910390f35b6107a1600480360381019061079c9190613ba7565b611ab1565b6040516107ae9190614072565b60405180910390f35b6107d160048036038101906107cc9190614036565b611acb565b6040516107de9190613c93565b60405180910390f35b61080160048036038101906107fc9190613ba7565b611c1d565b60405161080e9190613c93565b60405180910390f35b610831600480360381019061082c91906141cf565b611c37565b005b61084d60048036038101906108489190614036565b611cf7565b60405161085a9190613c93565b60405180910390f35b61087d60048036038101906108789190614499565b611d97565b60405161088a9190613c93565b60405180910390f35b6108ad60048036038101906108a891906141cf565b611e51565b6040516108ba919061420b565b60405180910390f35b6108dd60048036038101906108d89190614036565b611e69565b6040516108ea919061420b565b60405180910390f35b61090d60048036038101906109089190614499565b611e81565b60405161091a919061488c565b60405180910390f35b61093d60048036038101906109389190613ba7565b612013565b60405161094a919061420b565b60405180910390f35b61096d600480360381019061096891906148ae565b61202d565b60405161097a9190613d55565b60405180910390f35b61099d60048036038101906109989190614499565b6120c1565b6040516109ad94939291906148ee565b60405180910390f35b6109d060048036038101906109cb91906141cf565b61220e565b005b60606109df848484612306565b6080015190509392505050565b60007f80ac58cd000000000000000000000000000000000000000000000000000000007bffffffffffffffffffffffffffffffffffffffffffffffffffffffff1916827bffffffffffffffffffffffffffffffffffffffffffffffffffffffff19161480610ab757507f5b5e139f000000000000000000000000000000000000000000000000000000007bffffffffffffffffffffffffffffffffffffffffffffffffffffffff1916827bffffffffffffffffffffffffffffffffffffffffffffffffffffffff1916145b80610ac75750610ac682612570565b5b9050919050565b606081604001519050919050565b606060018054610aeb90614970565b80601f0160208091040260200160405190810160405280929190818152602001828054610b1790614970565b8015610b645780601f10610b3957610100808354040283529160200191610b64565b820191906000526020600020905b815481529060010190602001808311610b4757829003601f168201915b5050505050905090565b6000610b79826125da565b610bb8576040517f08c379a0000000000000000000000000000000000000000000000000000000008152600401610baf90614a14565b60405180910390fd5b6005600083815260200190815260200160002060009054906101000a900473ffffffffffffffffffffffffffffffffffffffff169050919050565b6000610bfe82610e7a565b90508073ffffffffffffffffffffffffffffffffffffffff168373ffffffffffffffffffffffffffffffffffffffff161415610c6f576040517f08c379a0000000000000000000000000000000000000000000000000000000008152600401610c6690614aa6565b60405180910390fd5b8073ffffffffffffffffffffffffffffffffffffffff16610c8e612646565b73ffffffffffffffffffffffffffffffffffffffff161480610cbd5750610cbc81610cb7612646565b61202d565b5b610cfc576040517f08c379a0000000000000000000000000000000000000000000000000000000008152600401610cf390614b38565b60405180910390fd5b610d06838361264e565b505050565b6000610d18848484612707565b6040015190509392505050565b6060610d32848484612707565b6060015190509392505050565b610d50610d4a612646565b82612868565b610d8f576040517f08c379a0000000000000000000000000000000000000000000000000000000008152600401610d8690614bca565b60405180910390fd5b610d9a838383612946565b505050565b6000610daa33610fba565b11610dea576040517f08c379a0000000000000000000000000000000000000000000000000000000008152600401610de190614c36565b60405180910390fd5b6000610df6838361298c565b9050610e038486836129d5565b5050505050565b60106020528060005260406000206000915054906101000a900473ffffffffffffffffffffffffffffffffffffffff1681565b610e58838383604051806020016040528060008152506119b7565b505050565b6000600a6000838152602001908152602001600020549050919050565b6000806003600084815260200190815260200160002060009054906101000a900473ffffffffffffffffffffffffffffffffffffffff169050600073ffffffffffffffffffffffffffffffffffffffff168173ffffffffffffffffffffffffffffffffffffffff161415610f23576040517f08c379a0000000000000000000000000000000000000000000000000000000008152600401610f1a90614cc8565b60405180910390fd5b80915050919050565b600e8054610f3990614970565b80601f0160208091040260200160405190810160405280929190818152602001828054610f6590614970565b8015610fb25780601f10610f8757610100808354040283529160200191610fb2565b820191906000526020600020905b815481529060010190602001808311610f9557829003601f168201915b505050505081565b60008073ffffffffffffffffffffffffffffffffffffffff168273ffffffffffffffffffffffffffffffffffffffff16141561102b576040517f08c379a000000000000000000000000000000000000000000000000000000000815260040161102290614d5a565b60405180910390fd5b600460008373ffffffffffffffffffffffffffffffffffffffff1673ffffffffffffffffffffffffffffffffffffffff168152602001908152602001600020549050919050565b61107a612646565b73ffffffffffffffffffffffffffffffffffffffff1661109861147b565b73ffffffffffffffffffffffffffffffffffffffff16146110ee576040517f08c379a00000000000000000000000000000000000000000000000000000000081526004016110e590614dc6565b60405180910390fd5b6110f86000612ac8565b565b601160003373ffffffffffffffffffffffffffffffffffffffff1673ffffffffffffffffffffffffffffffffffffffff16815260200190815260200160002054600061114533610fba565b11611185576040517f08c379a000000000000000000000000000000000000000000000000000000000815260040161117c90614c36565b60405180910390fd5b3373ffffffffffffffffffffffffffffffffffffffff166111a582610e7a565b73ffffffffffffffffffffffffffffffffffffffff16146111fb576040517f08c379a00000000000000000000000000000000000000000000000000000000081526004016111f290614e32565b60405180910390fd5b6000611208858585612b8c565b90506000601160003373ffffffffffffffffffffffffffffffffffffffff1673ffffffffffffffffffffffffffffffffffffffff1681526020019081526020016000205490506112588183612bda565b505050505050565b606061126d848484612306565b6040015190509392505050565b611282612646565b73ffffffffffffffffffffffffffffffffffffffff166112a061147b565b73ffffffffffffffffffffffffffffffffffffffff16146112f6576040517f08c379a00000000000000000000000000000000000000000000000000000000081526004016112ed90614dc6565b60405180910390fd5b60005b81518110156113385761132582828151811061131857611317614e52565b5b602002602001015161133c565b808061133090614eb0565b9150506112f9565b5050565b611344612646565b73ffffffffffffffffffffffffffffffffffffffff1661136261147b565b73ffffffffffffffffffffffffffffffffffffffff16146113b8576040517f08c379a00000000000000000000000000000000000000000000000000000000081526004016113af90614dc6565b60405180910390fd5b61144c81600e80546113c990614970565b80601f01602080910402602001604051908101604052809291908181526020018280546113f590614970565b80156114425780601f1061141757610100808354040283529160200191611442565b820191906000526020600020905b81548152906001019060200180831161142557829003601f168201915b5050505050612cf4565b50565b600061145c848484612707565b6000015190509392505050565b600061147482610e7a565b9050919050565b60008060009054906101000a900473ffffffffffffffffffffffffffffffffffffffff16905090565b6060600280546114b390614970565b80601f01602080910402602001604051908101604052809291908181526020018280546114df90614970565b801561152c5780601f106115015761010080835404028352916020019161152c565b820191906000526020600020905b81548152906001019060200180831161150f57829003601f168201915b5050505050905090565b601160003373ffffffffffffffffffffffffffffffffffffffff1673ffffffffffffffffffffffffffffffffffffffff16815260200190815260200160002054600061158133610fba565b116115c1576040517f08c379a00000000000000000000000000000000000000000000000000000000081526004016115b890614c36565b60405180910390fd5b3373ffffffffffffffffffffffffffffffffffffffff166115e182610e7a565b73ffffffffffffffffffffffffffffffffffffffff1614611637576040517f08c379a000000000000000000000000000000000000000000000000000000000815260040161162e90614e32565b60405180910390fd5b61163f613a35565b33816000019073ffffffffffffffffffffffffffffffffffffffff16908173ffffffffffffffffffffffffffffffffffffffff1681525050428160200181815250508481604001819052508381606001819052508281608001819052506000601160003373ffffffffffffffffffffffffffffffffffffffff1673ffffffffffffffffffffffffffffffffffffffff1681526020019081526020016000205490506116eb818884612e0f565b50505050505050565b6060600960008481526020019081526020016000206000838152602001908152602001600020600101805461172890614970565b80601f016020809104026020016040519081016040528092919081815260200182805461175490614970565b80156117a15780601f10611776576101008083540402835291602001916117a1565b820191906000526020600020905b81548152906001019060200180831161178457829003601f168201915b5050505050905092915050565b60006117b933610fba565b116117f9576040517f08c379a00000000000000000000000000000000000000000000000000000000081526004016117f090614c36565b60405180910390fd5b6000611805838361298c565b90506118118482612f1c565b50505050565b611829611822612646565b838361301c565b5050565b6118378282613189565b5050565b601160003373ffffffffffffffffffffffffffffffffffffffff1673ffffffffffffffffffffffffffffffffffffffff16815260200190815260200160002054600061188633610fba565b116118c6576040517f08c379a00000000000000000000000000000000000000000000000000000000081526004016118bd90614c36565b60405180910390fd5b3373ffffffffffffffffffffffffffffffffffffffff166118e682610e7a565b73ffffffffffffffffffffffffffffffffffffffff161461193c576040517f08c379a000000000000000000000000000000000000000000000000000000000815260040161193390614e32565b60405180910390fd5b6000601160003373ffffffffffffffffffffffffffffffffffffffff1673ffffffffffffffffffffffffffffffffffffffff16815260200190815260200160002054905061198b8185856131fd565b600061199682610e5d565b905060006119a382613352565b90506119af838261182d565b505050505050565b6119c86119c2612646565b83612868565b611a07576040517f08c379a00000000000000000000000000000000000000000000000000000000081526004016119fe90614bca565b60405180910390fd5b611a13848484846134b3565b50505050565b6000611a26848484612707565b6020015190509392505050565b600080600a60008481526020019081526020016000205411611a8a576040517f08c379a0000000000000000000000000000000000000000000000000000000008152600401611a8190614f45565b60405180910390fd5b6001600a600084815260200190815260200160002054611aaa9190614f65565b9050919050565b6000611abe848484612306565b6000015190509392505050565b6060611ad6826125da565b611b15576040517f08c379a0000000000000000000000000000000000000000000000000000000008152600401611b0c9061500b565b60405180910390fd5b6000600760008481526020019081526020016000208054611b3590614970565b80601f0160208091040260200160405190810160405280929190818152602001828054611b6190614970565b8015611bae5780601f10611b8357610100808354040283529160200191611bae565b820191906000526020600020905b815481529060010190602001808311611b9157829003601f168201915b505050505090506000611bbf61350f565b9050600081511415611bd5578192505050611c18565b600082511115611c0a578082604051602001611bf2929190615067565b60405160208183030381529060405292505050611c18565b611c1384613526565b925050505b919050565b6060611c2a848484612306565b6060015190509392505050565b611c3f612646565b73ffffffffffffffffffffffffffffffffffffffff16611c5d61147b565b73ffffffffffffffffffffffffffffffffffffffff1614611cb3576040517f08c379a0000000000000000000000000000000000000000000000000000000008152600401611caa90614dc6565b60405180910390fd5b80600d60006101000a81548173ffffffffffffffffffffffffffffffffffffffff021916908373ffffffffffffffffffffffffffffffffffffffff16021790555050565b600c6020528060005260406000206000915090508054611d1690614970565b80601f0160208091040260200160405190810160405280929190818152602001828054611d4290614970565b8015611d8f5780601f10611d6457610100808354040283529160200191611d8f565b820191906000526020600020905b815481529060010190602001808311611d7257829003601f168201915b505050505081565b60606009600084815260200190815260200160002060008381526020019081526020016000206000018054611dcb90614970565b80601f0160208091040260200160405190810160405280929190818152602001828054611df790614970565b8015611e445780601f10611e1957610100808354040283529160200191611e44565b820191906000526020600020905b815481529060010190602001808311611e2757829003601f168201915b5050505050905092915050565b60116020528060005260406000206000915090505481565b600a6020528060005260406000206000915090505481565b6060600060096000858152602001908152602001600020600084815260200190815260200160002060030154905060008167ffffffffffffffff811115611ecb57611eca613d75565b5b604051908082528060200260200182016040528015611efe57816020015b6060815260200190600190039081611ee95790505b50905060005b8281101561200757600060096000888152602001908152602001600020600087815260200190815260200160002060020160008381526020019081526020016000206002018054611f5490614970565b80601f0160208091040260200160405190810160405280929190818152602001828054611f8090614970565b8015611fcd5780601f10611fa257610100808354040283529160200191611fcd565b820191906000526020600020905b815481529060010190602001808311611fb057829003601f168201915b5050505050905080838381518110611fe857611fe7614e52565b5b6020026020010181905250508080611fff90614eb0565b915050611f04565b50809250505092915050565b6000612020848484612306565b6020015190509392505050565b6000600660008473ffffffffffffffffffffffffffffffffffffffff1673ffffffffffffffffffffffffffffffffffffffff16815260200190815260200160002060008373ffffffffffffffffffffffffffffffffffffffff1673ffffffffffffffffffffffffffffffffffffffff16815260200190815260200160002060009054906101000a900460ff16905092915050565b6009602052816000526040600020602052806000526040600020600091509150508060000180546120f190614970565b80601f016020809104026020016040519081016040528092919081815260200182805461211d90614970565b801561216a5780601f1061213f5761010080835404028352916020019161216a565b820191906000526020600020905b81548152906001019060200180831161214d57829003601f168201915b50505050509080600101805461217f90614970565b80601f01602080910402602001604051908101604052809291908181526020018280546121ab90614970565b80156121f85780601f106121cd576101008083540402835291602001916121f8565b820191906000526020600020905b8154815290600101906020018083116121db57829003601f168201915b5050505050908060030154908060050154905084565b612216612646565b73ffffffffffffffffffffffffffffffffffffffff1661223461147b565b73ffffffffffffffffffffffffffffffffffffffff161461228a576040517f08c379a000000000000000000000000000000000000000000000000000000000815260040161228190614dc6565b60405180910390fd5b600073ffffffffffffffffffffffffffffffffffffffff168173ffffffffffffffffffffffffffffffffffffffff1614156122fa576040517f08c379a00000000000000000000000000000000000000000000000000000000081526004016122f1906150fd565b60405180910390fd5b61230381612ac8565b50565b61230e613a35565b60096000858152602001908152602001600020600084815260200190815260200160002060020160008381526020019081526020016000206040518060a00160405290816000820160009054906101000a900473ffffffffffffffffffffffffffffffffffffffff1673ffffffffffffffffffffffffffffffffffffffff1673ffffffffffffffffffffffffffffffffffffffff168152602001600182015481526020016002820180546123c190614970565b80601f01602080910402602001604051908101604052809291908181526020018280546123ed90614970565b801561243a5780601f1061240f5761010080835404028352916020019161243a565b820191906000526020600020905b81548152906001019060200180831161241d57829003601f168201915b5050505050815260200160038201805461245390614970565b80601f016020809104026020016040519081016040528092919081815260200182805461247f90614970565b80156124cc5780601f106124a1576101008083540402835291602001916124cc565b820191906000526020600020905b8154815290600101906020018083116124af57829003601f168201915b505050505081526020016004820180546124e590614970565b80601f016020809104026020016040519081016040528092919081815260200182805461251190614970565b801561255e5780601f106125335761010080835404028352916020019161255e565b820191906000526020600020905b81548152906001019060200180831161254157829003601f168201915b50505050508152505090509392505050565b60007f01ffc9a7000000000000000000000000000000000000000000000000000000007bffffffffffffffffffffffffffffffffffffffffffffffffffffffff1916827bffffffffffffffffffffffffffffffffffffffffffffffffffffffff1916149050919050565b60008073ffffffffffffffffffffffffffffffffffffffff166003600084815260200190815260200160002060009054906101000a900473ffffffffffffffffffffffffffffffffffffffff1673ffffffffffffffffffffffffffffffffffffffff1614159050919050565b600033905090565b816005600083815260200190815260200160002060006101000a81548173ffffffffffffffffffffffffffffffffffffffff021916908373ffffffffffffffffffffffffffffffffffffffff160217905550808273ffffffffffffffffffffffffffffffffffffffff166126c183610e7a565b73ffffffffffffffffffffffffffffffffffffffff167f8c5be1e5ebec7d5bd14f71427d1e84f3dd0314c0f7b2291e5b200ac8c7c3b92560405160405180910390a45050565b61270f613a7a565b60096000858152602001908152602001600020600084815260200190815260200160002060040160008381526020019081526020016000206040518060800160405290816000820160009054906101000a900473ffffffffffffffffffffffffffffffffffffffff1673ffffffffffffffffffffffffffffffffffffffff1673ffffffffffffffffffffffffffffffffffffffff168152602001600182015481526020016002820160009054906101000a900460ff161515151581526020016003820180546127dd90614970565b80601f016020809104026020016040519081016040528092919081815260200182805461280990614970565b80156128565780601f1061282b57610100808354040283529160200191612856565b820191906000526020600020905b81548152906001019060200180831161283957829003601f168201915b50505050508152505090509392505050565b6000612873826125da565b6128b2576040517f08c379a00000000000000000000000000000000000000000000000000000000081526004016128a99061518f565b60405180910390fd5b60006128bd83610e7a565b90508073ffffffffffffffffffffffffffffffffffffffff168473ffffffffffffffffffffffffffffffffffffffff16148061292c57508373ffffffffffffffffffffffffffffffffffffffff1661291484610b6e565b73ffffffffffffffffffffffffffffffffffffffff16145b8061293d575061293c818561202d565b5b91505092915050565b6000612987576040517f08c379a000000000000000000000000000000000000000000000000000000000815260040161297e906151fb565b60405180910390fd5b505050565b612994613a7a565b60405180608001604052803373ffffffffffffffffffffffffffffffffffffffff168152602001428152602001841515815260200183815250905092915050565b60006009600085815260200190815260200160002060008481526020019081526020016000209050818160040160008360030154815260200190815260200160002060008201518160000160006101000a81548173ffffffffffffffffffffffffffffffffffffffff021916908373ffffffffffffffffffffffffffffffffffffffff1602179055506020820151816001015560408201518160020160006101000a81548160ff0219169083151502179055506060820151816003019080519060200190612aa4929190613aba565b50905050806005016000815480929190612abd90614eb0565b919050555050505050565b60008060009054906101000a900473ffffffffffffffffffffffffffffffffffffffff169050816000806101000a81548173ffffffffffffffffffffffffffffffffffffffff021916908373ffffffffffffffffffffffffffffffffffffffff1602179055508173ffffffffffffffffffffffffffffffffffffffff168173ffffffffffffffffffffffffffffffffffffffff167f8be0079c531659141344cd1fd0a4f28419497f9722a3daafe3b4186f6b6457e060405160405180910390a35050565b612b94613a35565b6040518060a001604052803373ffffffffffffffffffffffffffffffffffffffff1681526020014281526020018581526020018481526020018381525090509392505050565b6000612be583611a33565b905060006009600085815260200190815260200160002060008381526020019081526020016000209050828160020160008360030154815260200190815260200160002060008201518160000160006101000a81548173ffffffffffffffffffffffffffffffffffffffff021916908373ffffffffffffffffffffffffffffffffffffffff160217905550602082015181600101556040820151816002019080519060200190612c96929190613aba565b506060820151816003019080519060200190612cb3929190613aba565b506080820151816004019080519060200190612cd0929190613aba565b50905050806003016000815480929190612ce990614eb0565b919050555050505050565b6000601160008473ffffffffffffffffffffffffffffffffffffffff1673ffffffffffffffffffffffffffffffffffffffff1681526020019081526020016000205414612d76576040517f08c379a0000000000000000000000000000000000000000000000000000000008152600401612d6d90615267565b60405180910390fd5b6000612d81836135cd565b9050612d8d8183613189565b80601160008573ffffffffffffffffffffffffffffffffffffffff1673ffffffffffffffffffffffffffffffffffffffff168152602001908152602001600020819055507fb62cedb0baf4106f2334f1171ed38da58d218be16d69ed60b51c895f03a43ce38382604051612e02929190615287565b60405180910390a1505050565b60006009600085815260200190815260200160002060008481526020019081526020016000209050818160020160008360030154815260200190815260200160002060008201518160000160006101000a81548173ffffffffffffffffffffffffffffffffffffffff021916908373ffffffffffffffffffffffffffffffffffffffff160217905550602082015181600101556040820151816002019080519060200190612ebe929190613aba565b506060820151816003019080519060200190612edb929190613aba565b506080820151816004019080519060200190612ef8929190613aba565b50905050806003016000815480929190612f1190614eb0565b919050555050505050565b6000612f2783611a33565b905060006009600085815260200190815260200160002060008381526020019081526020016000209050828160040160008360030154815260200190815260200160002060008201518160000160006101000a81548173ffffffffffffffffffffffffffffffffffffffff021916908373ffffffffffffffffffffffffffffffffffffffff1602179055506020820151816001015560408201518160020160006101000a81548160ff0219169083151502179055506060820151816003019080519060200190612ff8929190613aba565b5090505080600501600081548092919061301190614eb0565b919050555050505050565b8173ffffffffffffffffffffffffffffffffffffffff168373ffffffffffffffffffffffffffffffffffffffff16141561308b576040517f08c379a0000000000000000000000000000000000000000000000000000000008152600401613082906152fc565b60405180910390fd5b80600660008573ffffffffffffffffffffffffffffffffffffffff1673ffffffffffffffffffffffffffffffffffffffff16815260200190815260200160002060008473ffffffffffffffffffffffffffffffffffffffff1673ffffffffffffffffffffffffffffffffffffffff16815260200190815260200160002060006101000a81548160ff0219169083151502179055508173ffffffffffffffffffffffffffffffffffffffff168373ffffffffffffffffffffffffffffffffffffffff167f17307eab39ab6107e8899845ad3d59bd9653f200f220920489ca2b5937696c318360405161317c9190613d55565b60405180910390a3505050565b613192826125da565b6131d1576040517f08c379a00000000000000000000000000000000000000000000000000000000081526004016131c89061538e565b60405180910390fd5b806007600084815260200190815260200160002090805190602001906131f8929190613aba565b505050565b6000600a6000858152602001908152602001600020549050826009600086815260200190815260200160002060008381526020019081526020016000206000019080519060200190613250929190613aba565b5081600960008681526020019081526020016000206000838152602001908152602001600020600101908051906020019061328c929190613aba565b508260096000868152602001908152602001600020600083815260200190815260200160002060000190805190602001906132c8929190613aba565b50600060096000868152602001908152602001600020600083815260200190815260200160002060030181905550600060096000868152602001908152602001600020600083815260200190815260200160002060050181905550600a6000858152602001908152602001600020600081548092919061334790614eb0565b919050555050505050565b6060600082141561339a576040518060400160405280600181526020017f300000000000000000000000000000000000000000000000000000000000000081525090506134ae565b600082905060005b600082146133cc5780806133b590614eb0565b915050600a826133c591906153dd565b91506133a2565b60008167ffffffffffffffff8111156133e8576133e7613d75565b5b6040519080825280601f01601f19166020018201604052801561341a5781602001600182028036833780820191505090505b5090505b600085146134a7576001826134339190614f65565b9150600a85613442919061540e565b603061344e919061543f565b60f81b81838151811061346457613463614e52565b5b60200101907effffffffffffffffffffffffffffffffffffffffffffffffffffffffffffff1916908160001a905350600a856134a091906153dd565b945061341e565b8093505050505b919050565b6134be848484612946565b6134ca848484846135fa565b613509576040517f08c379a000000000000000000000000000000000000000000000000000000000815260040161350090615507565b60405180910390fd5b50505050565b606060405180602001604052806000815250905090565b6060613531826125da565b613570576040517f08c379a000000000000000000000000000000000000000000000000000000000815260040161356790615599565b60405180910390fd5b600061357a61350f565b9050600081511161359a57604051806020016040528060008152506135c5565b806135a484613352565b6040516020016135b5929190615067565b6040516020818303038152906040525b915050919050565b60006135d96008613791565b60006135e560086137a7565b90506135f183826137b5565b80915050919050565b600061361b8473ffffffffffffffffffffffffffffffffffffffff166137d3565b15613784578373ffffffffffffffffffffffffffffffffffffffff1663150b7a02613644612646565b8786866040518563ffffffff1660e01b8152600401613666949392919061560e565b602060405180830381600087803b15801561368057600080fd5b505af19250505080156136b157506040513d601f19601f820116820180604052508101906136ae919061566f565b60015b613734573d80600081146136e1576040519150601f19603f3d011682016040523d82523d6000602084013e6136e6565b606091505b5060008151141561372c576040517f08c379a000000000000000000000000000000000000000000000000000000000815260040161372390615507565b60405180910390fd5b805181602001fd5b63150b7a0260e01b7bffffffffffffffffffffffffffffffffffffffffffffffffffffffff1916817bffffffffffffffffffffffffffffffffffffffffffffffffffffffff191614915050613789565b600190505b949350505050565b6001816000016000828254019250508190555050565b600081600001549050919050565b6137cf8282604051806020016040528060008152506137f6565b5050565b6000808273ffffffffffffffffffffffffffffffffffffffff163b119050919050565b6138008383613851565b61380d60008484846135fa565b61384c576040517f08c379a000000000000000000000000000000000000000000000000000000000815260040161384390615507565b60405180910390fd5b505050565b600073ffffffffffffffffffffffffffffffffffffffff168273ffffffffffffffffffffffffffffffffffffffff1614156138c1576040517f08c379a00000000000000000000000000000000000000000000000000000000081526004016138b8906156e8565b60405180910390fd5b6138ca816125da565b1561390a576040517f08c379a000000000000000000000000000000000000000000000000000000000815260040161390190615754565b60405180910390fd5b61391660008383613a2b565b6001600460008473ffffffffffffffffffffffffffffffffffffffff1673ffffffffffffffffffffffffffffffffffffffff1681526020019081526020016000206000828254613966919061543f565b92505081905550816003600083815260200190815260200160002060006101000a81548173ffffffffffffffffffffffffffffffffffffffff021916908373ffffffffffffffffffffffffffffffffffffffff160217905550808273ffffffffffffffffffffffffffffffffffffffff16600073ffffffffffffffffffffffffffffffffffffffff167fddf252ad1be2c89b69c2b068fc378daa952ba7f163c4a11628f55a4df523b3ef60405160405180910390a4613a2760008383613a30565b5050565b505050565b505050565b6040518060a00160405280600073ffffffffffffffffffffffffffffffffffffffff168152602001600081526020016060815260200160608152602001606081525090565b6040518060800160405280600073ffffffffffffffffffffffffffffffffffffffff16815260200160008152602001600015158152602001606081525090565b828054613ac690614970565b90600052602060002090601f016020900481019282613ae85760008555613b2f565b82601f10613b0157805160ff1916838001178555613b2f565b82800160010185558215613b2f579182015b82811115613b2e578251825591602001919060010190613b13565b5b509050613b3c9190613b40565b5090565b5b80821115613b59576000816000905550600101613b41565b5090565b6000604051905090565b600080fd5b600080fd5b6000819050919050565b613b8481613b71565b8114613b8f57600080fd5b50565b600081359050613ba181613b7b565b92915050565b600080600060608486031215613bc057613bbf613b67565b5b6000613bce86828701613b92565b9350506020613bdf86828701613b92565b9250506040613bf086828701613b92565b9150509250925092565b600081519050919050565b600082825260208201905092915050565b60005b83811015613c34578082015181840152602081019050613c19565b83811115613c43576000848401525b50505050565b6000601f19601f8301169050919050565b6000613c6582613bfa565b613c6f8185613c05565b9350613c7f818560208601613c16565b613c8881613c49565b840191505092915050565b60006020820190508181036000830152613cad8184613c5a565b905092915050565b60007fffffffff0000000000000000000000000000000000000000000000000000000082169050919050565b613cea81613cb5565b8114613cf557600080fd5b50565b600081359050613d0781613ce1565b92915050565b600060208284031215613d2357613d22613b67565b5b6000613d3184828501613cf8565b91505092915050565b60008115159050919050565b613d4f81613d3a565b82525050565b6000602082019050613d6a6000830184613d46565b92915050565b600080fd5b7f4e487b7100000000000000000000000000000000000000000000000000000000600052604160045260246000fd5b613dad82613c49565b810181811067ffffffffffffffff82111715613dcc57613dcb613d75565b5b80604052505050565b6000613ddf613b5d565b9050613deb8282613da4565b919050565b600080fd5b600073ffffffffffffffffffffffffffffffffffffffff82169050919050565b6000613e2082613df5565b9050919050565b613e3081613e15565b8114613e3b57600080fd5b50565b600081359050613e4d81613e27565b92915050565b600080fd5b600080fd5b600067ffffffffffffffff821115613e7857613e77613d75565b5b613e8182613c49565b9050602081019050919050565b82818337600083830152505050565b6000613eb0613eab84613e5d565b613dd5565b905082815260208101848484011115613ecc57613ecb613e58565b5b613ed7848285613e8e565b509392505050565b600082601f830112613ef457613ef3613e53565b5b8135613f04848260208601613e9d565b91505092915050565b600060a08284031215613f2357613f22613d70565b5b613f2d60a0613dd5565b90506000613f3d84828501613e3e565b6000830152506020613f5184828501613b92565b602083015250604082013567ffffffffffffffff811115613f7557613f74613df0565b5b613f8184828501613edf565b604083015250606082013567ffffffffffffffff811115613fa557613fa4613df0565b5b613fb184828501613edf565b606083015250608082013567ffffffffffffffff811115613fd557613fd4613df0565b5b613fe184828501613edf565b60808301525092915050565b60006020828403121561400357614002613b67565b5b600082013567ffffffffffffffff81111561402157614020613b6c565b5b61402d84828501613f0d565b91505092915050565b60006020828403121561404c5761404b613b67565b5b600061405a84828501613b92565b91505092915050565b61406c81613e15565b82525050565b60006020820190506140876000830184614063565b92915050565b600080604083850312156140a4576140a3613b67565b5b60006140b285828601613e3e565b92505060206140c385828601613b92565b9150509250929050565b6000806000606084860312156140e6576140e5613b67565b5b60006140f486828701613e3e565b935050602061410586828701613e3e565b925050604061411686828701613b92565b9150509250925092565b61412981613d3a565b811461413457600080fd5b50565b60008135905061414681614120565b92915050565b6000806000806080858703121561416657614165613b67565b5b600061417487828801613b92565b945050602061418587828801613b92565b935050604061419687828801614137565b925050606085013567ffffffffffffffff8111156141b7576141b6613b6c565b5b6141c387828801613edf565b91505092959194509250565b6000602082840312156141e5576141e4613b67565b5b60006141f384828501613e3e565b91505092915050565b61420581613b71565b82525050565b600060208201905061422060008301846141fc565b92915050565b60008060006060848603121561423f5761423e613b67565b5b600084013567ffffffffffffffff81111561425d5761425c613b6c565b5b61426986828701613edf565b935050602084013567ffffffffffffffff81111561428a57614289613b6c565b5b61429686828701613edf565b925050604084013567ffffffffffffffff8111156142b7576142b6613b6c565b5b6142c386828701613edf565b9150509250925092565b600067ffffffffffffffff8211156142e8576142e7613d75565b5b602082029050602081019050919050565b600080fd5b600061431161430c846142cd565b613dd5565b90508083825260208201905060208402830185811115614334576143336142f9565b5b835b8181101561435d57806143498882613e3e565b845260208401935050602081019050614336565b5050509392505050565b600082601f83011261437c5761437b613e53565b5b813561438c8482602086016142fe565b91505092915050565b6000602082840312156143ab576143aa613b67565b5b600082013567ffffffffffffffff8111156143c9576143c8613b6c565b5b6143d584828501614367565b91505092915050565b600080600080608085870312156143f8576143f7613b67565b5b600061440687828801613b92565b945050602085013567ffffffffffffffff81111561442757614426613b6c565b5b61443387828801613edf565b935050604085013567ffffffffffffffff81111561445457614453613b6c565b5b61446087828801613edf565b925050606085013567ffffffffffffffff81111561448157614480613b6c565b5b61448d87828801613edf565b91505092959194509250565b600080604083850312156144b0576144af613b67565b5b60006144be85828601613b92565b92505060206144cf85828601613b92565b9150509250929050565b6000806000606084860312156144f2576144f1613b67565b5b600061450086828701613b92565b935050602061451186828701614137565b925050604084013567ffffffffffffffff81111561453257614531613b6c565b5b61453e86828701613edf565b9150509250925092565b6000806040838503121561455f5761455e613b67565b5b600061456d85828601613e3e565b925050602061457e85828601614137565b9150509250929050565b6000806040838503121561459f5761459e613b67565b5b60006145ad85828601613b92565b925050602083013567ffffffffffffffff8111156145ce576145cd613b6c565b5b6145da85828601613edf565b9150509250929050565b600080604083850312156145fb576145fa613b67565b5b600083013567ffffffffffffffff81111561461957614618613b6c565b5b61462585828601613edf565b925050602083013567ffffffffffffffff81111561464657614645613b6c565b5b61465285828601613edf565b9150509250929050565b600067ffffffffffffffff82111561467757614676613d75565b5b61468082613c49565b9050602081019050919050565b60006146a061469b8461465c565b613dd5565b9050828152602081018484840111156146bc576146bb613e58565b5b6146c7848285613e8e565b509392505050565b600082601f8301126146e4576146e3613e53565b5b81356146f484826020860161468d565b91505092915050565b6000806000806080858703121561471757614716613b67565b5b600061472587828801613e3e565b945050602061473687828801613e3e565b935050604061474787828801613b92565b925050606085013567ffffffffffffffff81111561476857614767613b6c565b5b614774878288016146cf565b91505092959194509250565b600081519050919050565b600082825260208201905092915050565b6000819050602082019050919050565b600082825260208201905092915050565b60006147c882613bfa565b6147d281856147ac565b93506147e2818560208601613c16565b6147eb81613c49565b840191505092915050565b600061480283836147bd565b905092915050565b6000602082019050919050565b600061482282614780565b61482c818561478b565b93508360208202850161483e8561479c565b8060005b8581101561487a578484038952815161485b85826147f6565b94506148668361480a565b925060208a01995050600181019050614842565b50829750879550505050505092915050565b600060208201905081810360008301526148a68184614817565b905092915050565b600080604083850312156148c5576148c4613b67565b5b60006148d385828601613e3e565b92505060206148e485828601613e3e565b9150509250929050565b600060808201905081810360008301526149088187613c5a565b9050818103602083015261491c8186613c5a565b905061492b60408301856141fc565b61493860608301846141fc565b95945050505050565b7f4e487b7100000000000000000000000000000000000000000000000000000000600052602260045260246000fd5b6000600282049050600182168061498857607f821691505b6020821081141561499c5761499b614941565b5b50919050565b7f4552433732313a20617070726f76656420717565727920666f72206e6f6e657860008201527f697374656e7420746f6b656e0000000000000000000000000000000000000000602082015250565b60006149fe602c83613c05565b9150614a09826149a2565b604082019050919050565b60006020820190508181036000830152614a2d816149f1565b9050919050565b7f4552433732313a20617070726f76616c20746f2063757272656e74206f776e6560008201527f7200000000000000000000000000000000000000000000000000000000000000602082015250565b6000614a90602183613c05565b9150614a9b82614a34565b604082019050919050565b60006020820190508181036000830152614abf81614a83565b9050919050565b7f4552433732313a20617070726f76652063616c6c6572206973206e6f74206f7760008201527f6e6572206e6f7220617070726f76656420666f7220616c6c0000000000000000602082015250565b6000614b22603883613c05565b9150614b2d82614ac6565b604082019050919050565b60006020820190508181036000830152614b5181614b15565b9050919050565b7f4552433732313a207472616e736665722063616c6c6572206973206e6f74206f60008201527f776e6572206e6f7220617070726f766564000000000000000000000000000000602082015250565b6000614bb4603183613c05565b9150614bbf82614b58565b604082019050919050565b60006020820190508181036000830152614be381614ba7565b9050919050565b7f796f7520617265206e6f7420696e207468652044414f21000000000000000000600082015250565b6000614c20601783613c05565b9150614c2b82614bea565b602082019050919050565b60006020820190508181036000830152614c4f81614c13565b9050919050565b7f4552433732313a206f776e657220717565727920666f72206e6f6e657869737460008201527f656e7420746f6b656e0000000000000000000000000000000000000000000000602082015250565b6000614cb2602983613c05565b9150614cbd82614c56565b604082019050919050565b60006020820190508181036000830152614ce181614ca5565b9050919050565b7f4552433732313a2062616c616e636520717565727920666f7220746865207a6560008201527f726f206164647265737300000000000000000000000000000000000000000000602082015250565b6000614d44602a83613c05565b9150614d4f82614ce8565b604082019050919050565b60006020820190508181036000830152614d7381614d37565b9050919050565b7f4f776e61626c653a2063616c6c6572206973206e6f7420746865206f776e6572600082015250565b6000614db0602083613c05565b9150614dbb82614d7a565b602082019050919050565b60006020820190508181036000830152614ddf81614da3565b9050919050565b7f596f7520646f206e6f74206f776e207468697320426164676521000000000000600082015250565b6000614e1c601a83613c05565b9150614e2782614de6565b602082019050919050565b60006020820190508181036000830152614e4b81614e0f565b9050919050565b7f4e487b7100000000000000000000000000000000000000000000000000000000600052603260045260246000fd5b7f4e487b7100000000000000000000000000000000000000000000000000000000600052601160045260246000fd5b6000614ebb82613b71565b91507fffffffffffffffffffffffffffffffffffffffffffffffffffffffffffffffff821415614eee57614eed614e81565b5b600182019050919050565b7f476f20616e642061646420796f75722066697273742053747269706521000000600082015250565b6000614f2f601d83613c05565b9150614f3a82614ef9565b602082019050919050565b60006020820190508181036000830152614f5e81614f22565b9050919050565b6000614f7082613b71565b9150614f7b83613b71565b925082821015614f8e57614f8d614e81565b5b828203905092915050565b7f45524337323155524953746f726167653a2055524920717565727920666f722060008201527f6e6f6e6578697374656e7420746f6b656e000000000000000000000000000000602082015250565b6000614ff5603183613c05565b915061500082614f99565b604082019050919050565b6000602082019050818103600083015261502481614fe8565b9050919050565b600081905092915050565b600061504182613bfa565b61504b818561502b565b935061505b818560208601613c16565b80840191505092915050565b60006150738285615036565b915061507f8284615036565b91508190509392505050565b7f4f776e61626c653a206e6577206f776e657220697320746865207a65726f206160008201527f6464726573730000000000000000000000000000000000000000000000000000602082015250565b60006150e7602683613c05565b91506150f28261508b565b604082019050919050565b60006020820190508181036000830152615116816150da565b9050919050565b7f4552433732313a206f70657261746f7220717565727920666f72206e6f6e657860008201527f697374656e7420746f6b656e0000000000000000000000000000000000000000602082015250565b6000615179602c83613c05565b91506151848261511d565b604082019050919050565b600060208201905081810360008301526151a88161516c565b9050919050565b7f4e6f6e2d7472616e736665727261626c65210000000000000000000000000000600082015250565b60006151e5601283613c05565b91506151f0826151af565b602082019050919050565b60006020820190508181036000830152615214816151d8565b9050919050565b7f596f7520616c7265616479206f776e20612044414f2062616467652100000000600082015250565b6000615251601c83613c05565b915061525c8261521b565b602082019050919050565b6000602082019050818103600083015261528081615244565b9050919050565b600060408201905061529c6000830185614063565b6152a960208301846141fc565b9392505050565b7f4552433732313a20617070726f766520746f2063616c6c657200000000000000600082015250565b60006152e6601983613c05565b91506152f1826152b0565b602082019050919050565b60006020820190508181036000830152615315816152d9565b9050919050565b7f45524337323155524953746f726167653a2055524920736574206f66206e6f6e60008201527f6578697374656e7420746f6b656e000000000000000000000000000000000000602082015250565b6000615378602e83613c05565b91506153838261531c565b604082019050919050565b600060208201905081810360008301526153a78161536b565b9050919050565b7f4e487b7100000000000000000000000000000000000000000000000000000000600052601260045260246000fd5b60006153e882613b71565b91506153f383613b71565b925082615403576154026153ae565b5b828204905092915050565b600061541982613b71565b915061542483613b71565b925082615434576154336153ae565b5b828206905092915050565b600061544a82613b71565b915061545583613b71565b9250827fffffffffffffffffffffffffffffffffffffffffffffffffffffffffffffffff0382111561548a57615489614e81565b5b828201905092915050565b7f4552433732313a207472616e7366657220746f206e6f6e20455243373231526560008201527f63656976657220696d706c656d656e7465720000000000000000000000000000602082015250565b60006154f1603283613c05565b91506154fc82615495565b604082019050919050565b60006020820190508181036000830152615520816154e4565b9050919050565b7f4552433732314d657461646174613a2055524920717565727920666f72206e6f60008201527f6e6578697374656e7420746f6b656e0000000000000000000000000000000000602082015250565b6000615583602f83613c05565b915061558e82615527565b604082019050919050565b600060208201905081810360008301526155b281615576565b9050919050565b600081519050919050565b600082825260208201905092915050565b60006155e0826155b9565b6155ea81856155c4565b93506155fa818560208601613c16565b61560381613c49565b840191505092915050565b60006080820190506156236000830187614063565b6156306020830186614063565b61563d60408301856141fc565b818103606083015261564f81846155d5565b905095945050505050565b60008151905061566981613ce1565b92915050565b60006020828403121561568557615684613b67565b5b60006156938482850161565a565b91505092915050565b7f4552433732313a206d696e7420746f20746865207a65726f2061646472657373600082015250565b60006156d2602083613c05565b91506156dd8261569c565b602082019050919050565b60006020820190508181036000830152615701816156c5565b9050919050565b7f4552433732313a20746f6b656e20616c7265616479206d696e74656400000000600082015250565b600061573e601c83613c05565b915061574982615708565b602082019050919050565b6000602082019050818103600083015261576d81615731565b905091905056fea2646970667358221220c1950ae79a702a17f1f6a30cd3d66d25745247a56e38fde38c237a302a46449464736f6c63430008090033",
  "linkReferences": {},
  "deployedLinkReferences": {}
}